{
	"lesson/实战练习/科学家NFT批量抢购/ERC721Mint.sol": {
		"MintFactory": {
			"abi": [
				{
					"inputs": [],
					"stateMutability": "nonpayable",
					"type": "constructor"
				},
				{
					"inputs": [
						{
							"internalType": "address",
							"name": "ERC721",
							"type": "address"
						},
						{
							"internalType": "uint256",
							"name": "count",
							"type": "uint256"
						}
					],
					"name": "deploy",
					"outputs": [],
					"stateMutability": "payable",
					"type": "function"
				}
			],
			"devdoc": {
				"kind": "dev",
				"methods": {},
				"version": 1
			},
			"evm": {
				"assembly": "    /* \"lesson/\\xe5\\xae\\x9e\\xe6\\x88\\x98\\xe7\\xbb\\x83\\xe4\\xb9\\xa0/\\xe7\\xa7\\x91\\xe5\\xad\\xa6\\xe5\\xae\\xb6NFT\\xe6\\x89\\xb9\\xe9\\x87\\x8f\\xe6\\x8a\\xa2\\xe8\\xb4\\xad/ERC721Mint.sol\":1211:1658  contract MintFactory {... */\n  mstore(0x40, 0x80)\n    /* \"lesson/\\xe5\\xae\\x9e\\xe6\\x88\\x98\\xe7\\xbb\\x83\\xe4\\xb9\\xa0/\\xe7\\xa7\\x91\\xe5\\xad\\xa6\\xe5\\xae\\xb6NFT\\xe6\\x89\\xb9\\xe9\\x87\\x8f\\xe6\\x8a\\xa2\\xe8\\xb4\\xad/ERC721Mint.sol\":1270:1339  constructor() {... */\n  callvalue\n  dup1\n  iszero\n  tag_1\n  jumpi\n  0x00\n  dup1\n  revert\ntag_1:\n  pop\n    /* \"lesson/\\xe5\\xae\\x9e\\xe6\\x88\\x98\\xe7\\xbb\\x83\\xe4\\xb9\\xa0/\\xe7\\xa7\\x91\\xe5\\xad\\xa6\\xe5\\xae\\xb6NFT\\xe6\\x89\\xb9\\xe9\\x87\\x8f\\xe6\\x8a\\xa2\\xe8\\xb4\\xad/ERC721Mint.sol\":1326:1336  msg.sender */\n  caller\n    /* \"lesson/\\xe5\\xae\\x9e\\xe6\\x88\\x98\\xe7\\xbb\\x83\\xe4\\xb9\\xa0/\\xe7\\xa7\\x91\\xe5\\xad\\xa6\\xe5\\xae\\xb6NFT\\xe6\\x89\\xb9\\xe9\\x87\\x8f\\xe6\\x8a\\xa2\\xe8\\xb4\\xad/ERC721Mint.sol\":1318:1323  owner */\n  0x00\n  dup1\n    /* \"lesson/\\xe5\\xae\\x9e\\xe6\\x88\\x98\\xe7\\xbb\\x83\\xe4\\xb9\\xa0/\\xe7\\xa7\\x91\\xe5\\xad\\xa6\\xe5\\xae\\xb6NFT\\xe6\\x89\\xb9\\xe9\\x87\\x8f\\xe6\\x8a\\xa2\\xe8\\xb4\\xad/ERC721Mint.sol\":1318:1336  owner = msg.sender */\n  0x0100\n  exp\n  dup2\n  sload\n  dup2\n  0xffffffffffffffffffffffffffffffffffffffff\n  mul\n  not\n  and\n  swap1\n  dup4\n  0xffffffffffffffffffffffffffffffffffffffff\n  and\n  mul\n  or\n  swap1\n  sstore\n  pop\n    /* \"lesson/\\xe5\\xae\\x9e\\xe6\\x88\\x98\\xe7\\xbb\\x83\\xe4\\xb9\\xa0/\\xe7\\xa7\\x91\\xe5\\xad\\xa6\\xe5\\xae\\xb6NFT\\xe6\\x89\\xb9\\xe9\\x87\\x8f\\xe6\\x8a\\xa2\\xe8\\xb4\\xad/ERC721Mint.sol\":1211:1658  contract MintFactory {... */\n  dataSize(sub_0)\n  dup1\n  dataOffset(sub_0)\n  0x00\n  codecopy\n  0x00\n  return\nstop\n\nsub_0: assembly {\n        /* \"lesson/\\xe5\\xae\\x9e\\xe6\\x88\\x98\\xe7\\xbb\\x83\\xe4\\xb9\\xa0/\\xe7\\xa7\\x91\\xe5\\xad\\xa6\\xe5\\xae\\xb6NFT\\xe6\\x89\\xb9\\xe9\\x87\\x8f\\xe6\\x8a\\xa2\\xe8\\xb4\\xad/ERC721Mint.sol\":1211:1658  contract MintFactory {... */\n      mstore(0x40, 0x80)\n      jumpi(tag_1, lt(calldatasize, 0x04))\n      shr(0xe0, calldataload(0x00))\n      dup1\n      0x4956eaf0\n      eq\n      tag_2\n      jumpi\n    tag_1:\n      0x00\n      dup1\n      revert\n        /* \"lesson/\\xe5\\xae\\x9e\\xe6\\x88\\x98\\xe7\\xbb\\x83\\xe4\\xb9\\xa0/\\xe7\\xa7\\x91\\xe5\\xad\\xa6\\xe5\\xae\\xb6NFT\\xe6\\x89\\xb9\\xe9\\x87\\x8f\\xe6\\x8a\\xa2\\xe8\\xb4\\xad/ERC721Mint.sol\":1389:1656  function deploy(address ERC721, uint count) public payable {... */\n    tag_2:\n      tag_3\n      0x04\n      dup1\n      calldatasize\n      sub\n      dup2\n      add\n      swap1\n      tag_4\n      swap2\n      swap1\n      tag_5\n      jump\t// in\n    tag_4:\n      tag_6\n      jump\t// in\n    tag_3:\n      stop\n    tag_6:\n        /* \"lesson/\\xe5\\xae\\x9e\\xe6\\x88\\x98\\xe7\\xbb\\x83\\xe4\\xb9\\xa0/\\xe7\\xa7\\x91\\xe5\\xad\\xa6\\xe5\\xae\\xb6NFT\\xe6\\x89\\xb9\\xe9\\x87\\x8f\\xe6\\x8a\\xa2\\xe8\\xb4\\xad/ERC721Mint.sol\":1486:1492  uint i */\n      0x00\n        /* \"lesson/\\xe5\\xae\\x9e\\xe6\\x88\\x98\\xe7\\xbb\\x83\\xe4\\xb9\\xa0/\\xe7\\xa7\\x91\\xe5\\xad\\xa6\\xe5\\xae\\xb6NFT\\xe6\\x89\\xb9\\xe9\\x87\\x8f\\xe6\\x8a\\xa2\\xe8\\xb4\\xad/ERC721Mint.sol\":1481:1654  for (uint i; i < count; i++) {... */\n    tag_8:\n        /* \"lesson/\\xe5\\xae\\x9e\\xe6\\x88\\x98\\xe7\\xbb\\x83\\xe4\\xb9\\xa0/\\xe7\\xa7\\x91\\xe5\\xad\\xa6\\xe5\\xae\\xb6NFT\\xe6\\x89\\xb9\\xe9\\x87\\x8f\\xe6\\x8a\\xa2\\xe8\\xb4\\xad/ERC721Mint.sol\":1498:1503  count */\n      dup2\n        /* \"lesson/\\xe5\\xae\\x9e\\xe6\\x88\\x98\\xe7\\xbb\\x83\\xe4\\xb9\\xa0/\\xe7\\xa7\\x91\\xe5\\xad\\xa6\\xe5\\xae\\xb6NFT\\xe6\\x89\\xb9\\xe9\\x87\\x8f\\xe6\\x8a\\xa2\\xe8\\xb4\\xad/ERC721Mint.sol\":1494:1495  i */\n      dup2\n        /* \"lesson/\\xe5\\xae\\x9e\\xe6\\x88\\x98\\xe7\\xbb\\x83\\xe4\\xb9\\xa0/\\xe7\\xa7\\x91\\xe5\\xad\\xa6\\xe5\\xae\\xb6NFT\\xe6\\x89\\xb9\\xe9\\x87\\x8f\\xe6\\x8a\\xa2\\xe8\\xb4\\xad/ERC721Mint.sol\":1494:1503  i < count */\n      lt\n        /* \"lesson/\\xe5\\xae\\x9e\\xe6\\x88\\x98\\xe7\\xbb\\x83\\xe4\\xb9\\xa0/\\xe7\\xa7\\x91\\xe5\\xad\\xa6\\xe5\\xae\\xb6NFT\\xe6\\x89\\xb9\\xe9\\x87\\x8f\\xe6\\x8a\\xa2\\xe8\\xb4\\xad/ERC721Mint.sol\":1481:1654  for (uint i; i < count; i++) {... */\n      iszero\n      tag_9\n      jumpi\n        /* \"lesson/\\xe5\\xae\\x9e\\xe6\\x88\\x98\\xe7\\xbb\\x83\\xe4\\xb9\\xa0/\\xe7\\xa7\\x91\\xe5\\xad\\xa6\\xe5\\xae\\xb6NFT\\xe6\\x89\\xb9\\xe9\\x87\\x8f\\xe6\\x8a\\xa2\\xe8\\xb4\\xad/ERC721Mint.sol\":1624:1634  0.05 ether */\n      0xb1a2bc2ec50000\n        /* \"lesson/\\xe5\\xae\\x9e\\xe6\\x88\\x98\\xe7\\xbb\\x83\\xe4\\xb9\\xa0/\\xe7\\xa7\\x91\\xe5\\xad\\xa6\\xe5\\xae\\xb6NFT\\xe6\\x89\\xb9\\xe9\\x87\\x8f\\xe6\\x8a\\xa2\\xe8\\xb4\\xad/ERC721Mint.sol\":1636:1642  ERC721 */\n      dup4\n        /* \"lesson/\\xe5\\xae\\x9e\\xe6\\x88\\x98\\xe7\\xbb\\x83\\xe4\\xb9\\xa0/\\xe7\\xa7\\x91\\xe5\\xad\\xa6\\xe5\\xae\\xb6NFT\\xe6\\x89\\xb9\\xe9\\x87\\x8f\\xe6\\x8a\\xa2\\xe8\\xb4\\xad/ERC721Mint.sol\":1644:1649  owner */\n      0x00\n      dup1\n      sload\n      swap1\n      0x0100\n      exp\n      swap1\n      div\n      0xffffffffffffffffffffffffffffffffffffffff\n      and\n        /* \"lesson/\\xe5\\xae\\x9e\\xe6\\x88\\x98\\xe7\\xbb\\x83\\xe4\\xb9\\xa0/\\xe7\\xa7\\x91\\xe5\\xad\\xa6\\xe5\\xae\\xb6NFT\\xe6\\x89\\xb9\\xe9\\x87\\x8f\\xe6\\x8a\\xa2\\xe8\\xb4\\xad/ERC721Mint.sol\":1602:1650  new ERC721Mint{value: 0.05 ether}(ERC721, owner) */\n      mload(0x40)\n      tag_11\n      swap1\n      tag_12\n      jump\t// in\n    tag_11:\n      tag_13\n      swap3\n      swap2\n      swap1\n      tag_14\n      jump\t// in\n    tag_13:\n      mload(0x40)\n      dup1\n      swap2\n      sub\n      swap1\n      dup3\n      create\n      swap1\n      pop\n      dup1\n      iszero\n      dup1\n      iszero\n      tag_15\n      jumpi\n      returndatasize\n      0x00\n      dup1\n      returndatacopy\n      revert(0x00, returndatasize)\n    tag_15:\n      pop\n      pop\n        /* \"lesson/\\xe5\\xae\\x9e\\xe6\\x88\\x98\\xe7\\xbb\\x83\\xe4\\xb9\\xa0/\\xe7\\xa7\\x91\\xe5\\xad\\xa6\\xe5\\xae\\xb6NFT\\xe6\\x89\\xb9\\xe9\\x87\\x8f\\xe6\\x8a\\xa2\\xe8\\xb4\\xad/ERC721Mint.sol\":1505:1508  i++ */\n      dup1\n      dup1\n      tag_16\n      swap1\n      tag_17\n      jump\t// in\n    tag_16:\n      swap2\n      pop\n      pop\n        /* \"lesson/\\xe5\\xae\\x9e\\xe6\\x88\\x98\\xe7\\xbb\\x83\\xe4\\xb9\\xa0/\\xe7\\xa7\\x91\\xe5\\xad\\xa6\\xe5\\xae\\xb6NFT\\xe6\\x89\\xb9\\xe9\\x87\\x8f\\xe6\\x8a\\xa2\\xe8\\xb4\\xad/ERC721Mint.sol\":1481:1654  for (uint i; i < count; i++) {... */\n      jump(tag_8)\n    tag_9:\n      pop\n        /* \"lesson/\\xe5\\xae\\x9e\\xe6\\x88\\x98\\xe7\\xbb\\x83\\xe4\\xb9\\xa0/\\xe7\\xa7\\x91\\xe5\\xad\\xa6\\xe5\\xae\\xb6NFT\\xe6\\x89\\xb9\\xe9\\x87\\x8f\\xe6\\x8a\\xa2\\xe8\\xb4\\xad/ERC721Mint.sol\":1389:1656  function deploy(address ERC721, uint count) public payable {... */\n      pop\n      pop\n      jump\t// out\n    tag_12:\n      dataSize(sub_0)\n      dup1\n      dataOffset(sub_0)\n      dup4\n      codecopy\n      add\n      swap1\n      jump\t// out\n        /* \"#utility.yul\":88:205   */\n    tag_19:\n        /* \"#utility.yul\":197:198   */\n      0x00\n        /* \"#utility.yul\":194:195   */\n      dup1\n        /* \"#utility.yul\":187:199   */\n      revert\n        /* \"#utility.yul\":334:460   */\n    tag_21:\n        /* \"#utility.yul\":371:378   */\n      0x00\n        /* \"#utility.yul\":411:453   */\n      0xffffffffffffffffffffffffffffffffffffffff\n        /* \"#utility.yul\":404:409   */\n      dup3\n        /* \"#utility.yul\":400:454   */\n      and\n        /* \"#utility.yul\":389:454   */\n      swap1\n      pop\n        /* \"#utility.yul\":334:460   */\n      swap2\n      swap1\n      pop\n      jump\t// out\n        /* \"#utility.yul\":466:562   */\n    tag_22:\n        /* \"#utility.yul\":503:510   */\n      0x00\n        /* \"#utility.yul\":532:556   */\n      tag_36\n        /* \"#utility.yul\":550:555   */\n      dup3\n        /* \"#utility.yul\":532:556   */\n      tag_21\n      jump\t// in\n    tag_36:\n        /* \"#utility.yul\":521:556   */\n      swap1\n      pop\n        /* \"#utility.yul\":466:562   */\n      swap2\n      swap1\n      pop\n      jump\t// out\n        /* \"#utility.yul\":568:690   */\n    tag_23:\n        /* \"#utility.yul\":641:665   */\n      tag_38\n        /* \"#utility.yul\":659:664   */\n      dup2\n        /* \"#utility.yul\":641:665   */\n      tag_22\n      jump\t// in\n    tag_38:\n        /* \"#utility.yul\":634:639   */\n      dup2\n        /* \"#utility.yul\":631:666   */\n      eq\n        /* \"#utility.yul\":621:684   */\n      tag_39\n      jumpi\n        /* \"#utility.yul\":680:681   */\n      0x00\n        /* \"#utility.yul\":677:678   */\n      dup1\n        /* \"#utility.yul\":670:682   */\n      revert\n        /* \"#utility.yul\":621:684   */\n    tag_39:\n        /* \"#utility.yul\":568:690   */\n      pop\n      jump\t// out\n        /* \"#utility.yul\":696:835   */\n    tag_24:\n        /* \"#utility.yul\":742:747   */\n      0x00\n        /* \"#utility.yul\":780:786   */\n      dup2\n        /* \"#utility.yul\":767:787   */\n      calldataload\n        /* \"#utility.yul\":758:787   */\n      swap1\n      pop\n        /* \"#utility.yul\":796:829   */\n      tag_41\n        /* \"#utility.yul\":823:828   */\n      dup2\n        /* \"#utility.yul\":796:829   */\n      tag_23\n      jump\t// in\n    tag_41:\n        /* \"#utility.yul\":696:835   */\n      swap3\n      swap2\n      pop\n      pop\n      jump\t// out\n        /* \"#utility.yul\":841:918   */\n    tag_25:\n        /* \"#utility.yul\":878:885   */\n      0x00\n        /* \"#utility.yul\":907:912   */\n      dup2\n        /* \"#utility.yul\":896:912   */\n      swap1\n      pop\n        /* \"#utility.yul\":841:918   */\n      swap2\n      swap1\n      pop\n      jump\t// out\n        /* \"#utility.yul\":924:1046   */\n    tag_26:\n        /* \"#utility.yul\":997:1021   */\n      tag_44\n        /* \"#utility.yul\":1015:1020   */\n      dup2\n        /* \"#utility.yul\":997:1021   */\n      tag_25\n      jump\t// in\n    tag_44:\n        /* \"#utility.yul\":990:995   */\n      dup2\n        /* \"#utility.yul\":987:1022   */\n      eq\n        /* \"#utility.yul\":977:1040   */\n      tag_45\n      jumpi\n        /* \"#utility.yul\":1036:1037   */\n      0x00\n        /* \"#utility.yul\":1033:1034   */\n      dup1\n        /* \"#utility.yul\":1026:1038   */\n      revert\n        /* \"#utility.yul\":977:1040   */\n    tag_45:\n        /* \"#utility.yul\":924:1046   */\n      pop\n      jump\t// out\n        /* \"#utility.yul\":1052:1191   */\n    tag_27:\n        /* \"#utility.yul\":1098:1103   */\n      0x00\n        /* \"#utility.yul\":1136:1142   */\n      dup2\n        /* \"#utility.yul\":1123:1143   */\n      calldataload\n        /* \"#utility.yul\":1114:1143   */\n      swap1\n      pop\n        /* \"#utility.yul\":1152:1185   */\n      tag_47\n        /* \"#utility.yul\":1179:1184   */\n      dup2\n        /* \"#utility.yul\":1152:1185   */\n      tag_26\n      jump\t// in\n    tag_47:\n        /* \"#utility.yul\":1052:1191   */\n      swap3\n      swap2\n      pop\n      pop\n      jump\t// out\n        /* \"#utility.yul\":1197:1671   */\n    tag_5:\n        /* \"#utility.yul\":1265:1271   */\n      0x00\n        /* \"#utility.yul\":1273:1279   */\n      dup1\n        /* \"#utility.yul\":1322:1324   */\n      0x40\n        /* \"#utility.yul\":1310:1319   */\n      dup4\n        /* \"#utility.yul\":1301:1308   */\n      dup6\n        /* \"#utility.yul\":1297:1320   */\n      sub\n        /* \"#utility.yul\":1293:1325   */\n      slt\n        /* \"#utility.yul\":1290:1409   */\n      iszero\n      tag_49\n      jumpi\n        /* \"#utility.yul\":1328:1407   */\n      tag_50\n      tag_19\n      jump\t// in\n    tag_50:\n        /* \"#utility.yul\":1290:1409   */\n    tag_49:\n        /* \"#utility.yul\":1448:1449   */\n      0x00\n        /* \"#utility.yul\":1473:1526   */\n      tag_51\n        /* \"#utility.yul\":1518:1525   */\n      dup6\n        /* \"#utility.yul\":1509:1515   */\n      dup3\n        /* \"#utility.yul\":1498:1507   */\n      dup7\n        /* \"#utility.yul\":1494:1516   */\n      add\n        /* \"#utility.yul\":1473:1526   */\n      tag_24\n      jump\t// in\n    tag_51:\n        /* \"#utility.yul\":1463:1526   */\n      swap3\n      pop\n        /* \"#utility.yul\":1419:1536   */\n      pop\n        /* \"#utility.yul\":1575:1577   */\n      0x20\n        /* \"#utility.yul\":1601:1654   */\n      tag_52\n        /* \"#utility.yul\":1646:1653   */\n      dup6\n        /* \"#utility.yul\":1637:1643   */\n      dup3\n        /* \"#utility.yul\":1626:1635   */\n      dup7\n        /* \"#utility.yul\":1622:1644   */\n      add\n        /* \"#utility.yul\":1601:1654   */\n      tag_27\n      jump\t// in\n    tag_52:\n        /* \"#utility.yul\":1591:1654   */\n      swap2\n      pop\n        /* \"#utility.yul\":1546:1664   */\n      pop\n        /* \"#utility.yul\":1197:1671   */\n      swap3\n      pop\n      swap3\n      swap1\n      pop\n      jump\t// out\n        /* \"#utility.yul\":1677:1795   */\n    tag_28:\n        /* \"#utility.yul\":1764:1788   */\n      tag_54\n        /* \"#utility.yul\":1782:1787   */\n      dup2\n        /* \"#utility.yul\":1764:1788   */\n      tag_22\n      jump\t// in\n    tag_54:\n        /* \"#utility.yul\":1759:1762   */\n      dup3\n        /* \"#utility.yul\":1752:1789   */\n      mstore\n        /* \"#utility.yul\":1677:1795   */\n      pop\n      pop\n      jump\t// out\n        /* \"#utility.yul\":1801:2133   */\n    tag_14:\n        /* \"#utility.yul\":1922:1926   */\n      0x00\n        /* \"#utility.yul\":1960:1962   */\n      0x40\n        /* \"#utility.yul\":1949:1958   */\n      dup3\n        /* \"#utility.yul\":1945:1963   */\n      add\n        /* \"#utility.yul\":1937:1963   */\n      swap1\n      pop\n        /* \"#utility.yul\":1973:2044   */\n      tag_56\n        /* \"#utility.yul\":2041:2042   */\n      0x00\n        /* \"#utility.yul\":2030:2039   */\n      dup4\n        /* \"#utility.yul\":2026:2043   */\n      add\n        /* \"#utility.yul\":2017:2023   */\n      dup6\n        /* \"#utility.yul\":1973:2044   */\n      tag_28\n      jump\t// in\n    tag_56:\n        /* \"#utility.yul\":2054:2126   */\n      tag_57\n        /* \"#utility.yul\":2122:2124   */\n      0x20\n        /* \"#utility.yul\":2111:2120   */\n      dup4\n        /* \"#utility.yul\":2107:2125   */\n      add\n        /* \"#utility.yul\":2098:2104   */\n      dup5\n        /* \"#utility.yul\":2054:2126   */\n      tag_28\n      jump\t// in\n    tag_57:\n        /* \"#utility.yul\":1801:2133   */\n      swap4\n      swap3\n      pop\n      pop\n      pop\n      jump\t// out\n        /* \"#utility.yul\":2139:2319   */\n    tag_29:\n        /* \"#utility.yul\":2187:2264   */\n      0x4e487b7100000000000000000000000000000000000000000000000000000000\n        /* \"#utility.yul\":2184:2185   */\n      0x00\n        /* \"#utility.yul\":2177:2265   */\n      mstore\n        /* \"#utility.yul\":2284:2288   */\n      0x11\n        /* \"#utility.yul\":2281:2282   */\n      0x04\n        /* \"#utility.yul\":2274:2289   */\n      mstore\n        /* \"#utility.yul\":2308:2312   */\n      0x24\n        /* \"#utility.yul\":2305:2306   */\n      0x00\n        /* \"#utility.yul\":2298:2313   */\n      revert\n        /* \"#utility.yul\":2325:2558   */\n    tag_17:\n        /* \"#utility.yul\":2364:2367   */\n      0x00\n        /* \"#utility.yul\":2387:2411   */\n      tag_60\n        /* \"#utility.yul\":2405:2410   */\n      dup3\n        /* \"#utility.yul\":2387:2411   */\n      tag_25\n      jump\t// in\n    tag_60:\n        /* \"#utility.yul\":2378:2411   */\n      swap2\n      pop\n        /* \"#utility.yul\":2433:2499   */\n      0xffffffffffffffffffffffffffffffffffffffffffffffffffffffffffffffff\n        /* \"#utility.yul\":2426:2431   */\n      dup3\n        /* \"#utility.yul\":2423:2500   */\n      sub\n        /* \"#utility.yul\":2420:2523   */\n      tag_61\n      jumpi\n        /* \"#utility.yul\":2503:2521   */\n      tag_62\n      tag_29\n      jump\t// in\n    tag_62:\n        /* \"#utility.yul\":2420:2523   */\n    tag_61:\n        /* \"#utility.yul\":2550:2551   */\n      0x01\n        /* \"#utility.yul\":2543:2548   */\n      dup3\n        /* \"#utility.yul\":2539:2552   */\n      add\n        /* \"#utility.yul\":2532:2552   */\n      swap1\n      pop\n        /* \"#utility.yul\":2325:2558   */\n      swap2\n      swap1\n      pop\n      jump\t// out\n    stop\n\n    sub_0: assembly {\n            /* \"lesson/\\xe5\\xae\\x9e\\xe6\\x88\\x98\\xe7\\xbb\\x83\\xe4\\xb9\\xa0/\\xe7\\xa7\\x91\\xe5\\xad\\xa6\\xe5\\xae\\xb6NFT\\xe6\\x89\\xb9\\xe9\\x87\\x8f\\xe6\\x8a\\xa2\\xe8\\xb4\\xad/ERC721Mint.sol\":682:1192  contract ERC721Mint {... */\n          mstore(0x40, 0x80)\n            /* \"lesson/\\xe5\\xae\\x9e\\xe6\\x88\\x98\\xe7\\xbb\\x83\\xe4\\xb9\\xa0/\\xe7\\xa7\\x91\\xe5\\xad\\xa6\\xe5\\xae\\xb6NFT\\xe6\\x89\\xb9\\xe9\\x87\\x8f\\xe6\\x8a\\xa2\\xe8\\xb4\\xad/ERC721Mint.sol\":755:1190  constructor(address ERC721, address owner) payable {... */\n          mload(0x40)\n          sub(codesize, bytecodeSize)\n          dup1\n          bytecodeSize\n          dup4\n          codecopy\n          dup2\n          dup2\n          add\n          0x40\n          mstore\n          dup2\n          add\n          swap1\n          tag_1\n          swap2\n          swap1\n          tag_2\n          jump\t// in\n        tag_1:\n            /* \"lesson/\\xe5\\xae\\x9e\\xe6\\x88\\x98\\xe7\\xbb\\x83\\xe4\\xb9\\xa0/\\xe7\\xa7\\x91\\xe5\\xad\\xa6\\xe5\\xae\\xb6NFT\\xe6\\x89\\xb9\\xe9\\x87\\x8f\\xe6\\x8a\\xa2\\xe8\\xb4\\xad/ERC721Mint.sol\":828:834  uint t */\n          0x00\n            /* \"lesson/\\xe5\\xae\\x9e\\xe6\\x88\\x98\\xe7\\xbb\\x83\\xe4\\xb9\\xa0/\\xe7\\xa7\\x91\\xe5\\xad\\xa6\\xe5\\xae\\xb6NFT\\xe6\\x89\\xb9\\xe9\\x87\\x8f\\xe6\\x8a\\xa2\\xe8\\xb4\\xad/ERC721Mint.sol\":845:851  ERC721 */\n          dup3\n            /* \"lesson/\\xe5\\xae\\x9e\\xe6\\x88\\x98\\xe7\\xbb\\x83\\xe4\\xb9\\xa0/\\xe7\\xa7\\x91\\xe5\\xad\\xa6\\xe5\\xae\\xb6NFT\\xe6\\x89\\xb9\\xe9\\x87\\x8f\\xe6\\x8a\\xa2\\xe8\\xb4\\xad/ERC721Mint.sol\":837:864  IERC721(ERC721).totalSupply */\n          0xffffffffffffffffffffffffffffffffffffffff\n          and\n          0x18160ddd\n            /* \"lesson/\\xe5\\xae\\x9e\\xe6\\x88\\x98\\xe7\\xbb\\x83\\xe4\\xb9\\xa0/\\xe7\\xa7\\x91\\xe5\\xad\\xa6\\xe5\\xae\\xb6NFT\\xe6\\x89\\xb9\\xe9\\x87\\x8f\\xe6\\x8a\\xa2\\xe8\\xb4\\xad/ERC721Mint.sol\":837:866  IERC721(ERC721).totalSupply() */\n          mload(0x40)\n          dup2\n          0xffffffff\n          and\n          0xe0\n          shl\n          dup2\n          mstore\n          0x04\n          add\n          0x20\n          mload(0x40)\n          dup1\n          dup4\n          sub\n          dup2\n          dup7\n          gas\n          staticcall\n          iszero\n          dup1\n          iszero\n          tag_6\n          jumpi\n          returndatasize\n          0x00\n          dup1\n          returndatacopy\n          revert(0x00, returndatasize)\n        tag_6:\n          pop\n          pop\n          pop\n          pop\n          mload(0x40)\n          returndatasize\n          not(0x1f)\n          0x1f\n          dup3\n          add\n          and\n          dup3\n          add\n          dup1\n          0x40\n          mstore\n          pop\n          dup2\n          add\n          swap1\n          tag_7\n          swap2\n          swap1\n          tag_8\n          jump\t// in\n        tag_7:\n            /* \"lesson/\\xe5\\xae\\x9e\\xe6\\x88\\x98\\xe7\\xbb\\x83\\xe4\\xb9\\xa0/\\xe7\\xa7\\x91\\xe5\\xad\\xa6\\xe5\\xae\\xb6NFT\\xe6\\x89\\xb9\\xe9\\x87\\x8f\\xe6\\x8a\\xa2\\xe8\\xb4\\xad/ERC721Mint.sol\":828:866  uint t = IERC721(ERC721).totalSupply() */\n          swap1\n          pop\n            /* \"lesson/\\xe5\\xae\\x9e\\xe6\\x88\\x98\\xe7\\xbb\\x83\\xe4\\xb9\\xa0/\\xe7\\xa7\\x91\\xe5\\xad\\xa6\\xe5\\xae\\xb6NFT\\xe6\\x89\\xb9\\xe9\\x87\\x8f\\xe6\\x8a\\xa2\\xe8\\xb4\\xad/ERC721Mint.sol\":921:927  ERC721 */\n          dup3\n            /* \"lesson/\\xe5\\xae\\x9e\\xe6\\x88\\x98\\xe7\\xbb\\x83\\xe4\\xb9\\xa0/\\xe7\\xa7\\x91\\xe5\\xad\\xa6\\xe5\\xae\\xb6NFT\\xe6\\x89\\xb9\\xe9\\x87\\x8f\\xe6\\x8a\\xa2\\xe8\\xb4\\xad/ERC721Mint.sol\":913:933  IERC721(ERC721).mint */\n          0xffffffffffffffffffffffffffffffffffffffff\n          and\n          0xa0712d68\n            /* \"lesson/\\xe5\\xae\\x9e\\xe6\\x88\\x98\\xe7\\xbb\\x83\\xe4\\xb9\\xa0/\\xe7\\xa7\\x91\\xe5\\xad\\xa6\\xe5\\xae\\xb6NFT\\xe6\\x89\\xb9\\xe9\\x87\\x8f\\xe6\\x8a\\xa2\\xe8\\xb4\\xad/ERC721Mint.sol\":941:951  0.05 ether */\n          0xb1a2bc2ec50000\n            /* \"lesson/\\xe5\\xae\\x9e\\xe6\\x88\\x98\\xe7\\xbb\\x83\\xe4\\xb9\\xa0/\\xe7\\xa7\\x91\\xe5\\xad\\xa6\\xe5\\xae\\xb6NFT\\xe6\\x89\\xb9\\xe9\\x87\\x8f\\xe6\\x8a\\xa2\\xe8\\xb4\\xad/ERC721Mint.sol\":953:954  5 */\n          0x05\n            /* \"lesson/\\xe5\\xae\\x9e\\xe6\\x88\\x98\\xe7\\xbb\\x83\\xe4\\xb9\\xa0/\\xe7\\xa7\\x91\\xe5\\xad\\xa6\\xe5\\xae\\xb6NFT\\xe6\\x89\\xb9\\xe9\\x87\\x8f\\xe6\\x8a\\xa2\\xe8\\xb4\\xad/ERC721Mint.sol\":913:955  IERC721(ERC721).mint{value: 0.05 ether}(5) */\n          mload(0x40)\n          dup4\n          0xffffffff\n          and\n          0xe0\n          shl\n          dup2\n          mstore\n          0x04\n          add\n          tag_9\n          swap2\n          swap1\n          tag_10\n          jump\t// in\n        tag_9:\n          0x00\n          mload(0x40)\n          dup1\n          dup4\n          sub\n          dup2\n          dup6\n          dup9\n          dup1\n          extcodesize\n          iszero\n          dup1\n          iszero\n          tag_11\n          jumpi\n          0x00\n          dup1\n          revert\n        tag_11:\n          pop\n          gas\n          call\n          iszero\n          dup1\n          iszero\n          tag_13\n          jumpi\n          returndatasize\n          0x00\n          dup1\n          returndatacopy\n          revert(0x00, returndatasize)\n        tag_13:\n          pop\n          pop\n          pop\n          pop\n          pop\n            /* \"lesson/\\xe5\\xae\\x9e\\xe6\\x88\\x98\\xe7\\xbb\\x83\\xe4\\xb9\\xa0/\\xe7\\xa7\\x91\\xe5\\xad\\xa6\\xe5\\xae\\xb6NFT\\xe6\\x89\\xb9\\xe9\\x87\\x8f\\xe6\\x8a\\xa2\\xe8\\xb4\\xad/ERC721Mint.sol\":972:978  uint i */\n          0x00\n            /* \"lesson/\\xe5\\xae\\x9e\\xe6\\x88\\x98\\xe7\\xbb\\x83\\xe4\\xb9\\xa0/\\xe7\\xa7\\x91\\xe5\\xad\\xa6\\xe5\\xae\\xb6NFT\\xe6\\x89\\xb9\\xe9\\x87\\x8f\\xe6\\x8a\\xa2\\xe8\\xb4\\xad/ERC721Mint.sol\":981:982  1 */\n          0x01\n            /* \"lesson/\\xe5\\xae\\x9e\\xe6\\x88\\x98\\xe7\\xbb\\x83\\xe4\\xb9\\xa0/\\xe7\\xa7\\x91\\xe5\\xad\\xa6\\xe5\\xae\\xb6NFT\\xe6\\x89\\xb9\\xe9\\x87\\x8f\\xe6\\x8a\\xa2\\xe8\\xb4\\xad/ERC721Mint.sol\":972:982  uint i = 1 */\n          swap1\n          pop\n            /* \"lesson/\\xe5\\xae\\x9e\\xe6\\x88\\x98\\xe7\\xbb\\x83\\xe4\\xb9\\xa0/\\xe7\\xa7\\x91\\xe5\\xad\\xa6\\xe5\\xae\\xb6NFT\\xe6\\x89\\xb9\\xe9\\x87\\x8f\\xe6\\x8a\\xa2\\xe8\\xb4\\xad/ERC721Mint.sol\":967:1121  for (uint i = 1; i <= 5; i++) {... */\n        tag_14:\n            /* \"lesson/\\xe5\\xae\\x9e\\xe6\\x88\\x98\\xe7\\xbb\\x83\\xe4\\xb9\\xa0/\\xe7\\xa7\\x91\\xe5\\xad\\xa6\\xe5\\xae\\xb6NFT\\xe6\\x89\\xb9\\xe9\\x87\\x8f\\xe6\\x8a\\xa2\\xe8\\xb4\\xad/ERC721Mint.sol\":989:990  5 */\n          0x05\n            /* \"lesson/\\xe5\\xae\\x9e\\xe6\\x88\\x98\\xe7\\xbb\\x83\\xe4\\xb9\\xa0/\\xe7\\xa7\\x91\\xe5\\xad\\xa6\\xe5\\xae\\xb6NFT\\xe6\\x89\\xb9\\xe9\\x87\\x8f\\xe6\\x8a\\xa2\\xe8\\xb4\\xad/ERC721Mint.sol\":984:985  i */\n          dup2\n            /* \"lesson/\\xe5\\xae\\x9e\\xe6\\x88\\x98\\xe7\\xbb\\x83\\xe4\\xb9\\xa0/\\xe7\\xa7\\x91\\xe5\\xad\\xa6\\xe5\\xae\\xb6NFT\\xe6\\x89\\xb9\\xe9\\x87\\x8f\\xe6\\x8a\\xa2\\xe8\\xb4\\xad/ERC721Mint.sol\":984:990  i <= 5 */\n          gt\n            /* \"lesson/\\xe5\\xae\\x9e\\xe6\\x88\\x98\\xe7\\xbb\\x83\\xe4\\xb9\\xa0/\\xe7\\xa7\\x91\\xe5\\xad\\xa6\\xe5\\xae\\xb6NFT\\xe6\\x89\\xb9\\xe9\\x87\\x8f\\xe6\\x8a\\xa2\\xe8\\xb4\\xad/ERC721Mint.sol\":967:1121  for (uint i = 1; i <= 5; i++) {... */\n          tag_15\n          jumpi\n            /* \"lesson/\\xe5\\xae\\x9e\\xe6\\x88\\x98\\xe7\\xbb\\x83\\xe4\\xb9\\xa0/\\xe7\\xa7\\x91\\xe5\\xad\\xa6\\xe5\\xae\\xb6NFT\\xe6\\x89\\xb9\\xe9\\x87\\x8f\\xe6\\x8a\\xa2\\xe8\\xb4\\xad/ERC721Mint.sol\":1069:1075  ERC721 */\n          dup4\n            /* \"lesson/\\xe5\\xae\\x9e\\xe6\\x88\\x98\\xe7\\xbb\\x83\\xe4\\xb9\\xa0/\\xe7\\xa7\\x91\\xe5\\xad\\xa6\\xe5\\xae\\xb6NFT\\xe6\\x89\\xb9\\xe9\\x87\\x8f\\xe6\\x8a\\xa2\\xe8\\xb4\\xad/ERC721Mint.sol\":1061:1089  IERC721(ERC721).transferFrom */\n          0xffffffffffffffffffffffffffffffffffffffff\n          and\n          0x23b872dd\n            /* \"lesson/\\xe5\\xae\\x9e\\xe6\\x88\\x98\\xe7\\xbb\\x83\\xe4\\xb9\\xa0/\\xe7\\xa7\\x91\\xe5\\xad\\xa6\\xe5\\xae\\xb6NFT\\xe6\\x89\\xb9\\xe9\\x87\\x8f\\xe6\\x8a\\xa2\\xe8\\xb4\\xad/ERC721Mint.sol\":1098:1102  this */\n          address\n            /* \"lesson/\\xe5\\xae\\x9e\\xe6\\x88\\x98\\xe7\\xbb\\x83\\xe4\\xb9\\xa0/\\xe7\\xa7\\x91\\xe5\\xad\\xa6\\xe5\\xae\\xb6NFT\\xe6\\x89\\xb9\\xe9\\x87\\x8f\\xe6\\x8a\\xa2\\xe8\\xb4\\xad/ERC721Mint.sol\":1105:1110  owner */\n          dup6\n            /* \"lesson/\\xe5\\xae\\x9e\\xe6\\x88\\x98\\xe7\\xbb\\x83\\xe4\\xb9\\xa0/\\xe7\\xa7\\x91\\xe5\\xad\\xa6\\xe5\\xae\\xb6NFT\\xe6\\x89\\xb9\\xe9\\x87\\x8f\\xe6\\x8a\\xa2\\xe8\\xb4\\xad/ERC721Mint.sol\":1116:1117  i */\n          dup5\n            /* \"lesson/\\xe5\\xae\\x9e\\xe6\\x88\\x98\\xe7\\xbb\\x83\\xe4\\xb9\\xa0/\\xe7\\xa7\\x91\\xe5\\xad\\xa6\\xe5\\xae\\xb6NFT\\xe6\\x89\\xb9\\xe9\\x87\\x8f\\xe6\\x8a\\xa2\\xe8\\xb4\\xad/ERC721Mint.sol\":1112:1113  t */\n          dup7\n            /* \"lesson/\\xe5\\xae\\x9e\\xe6\\x88\\x98\\xe7\\xbb\\x83\\xe4\\xb9\\xa0/\\xe7\\xa7\\x91\\xe5\\xad\\xa6\\xe5\\xae\\xb6NFT\\xe6\\x89\\xb9\\xe9\\x87\\x8f\\xe6\\x8a\\xa2\\xe8\\xb4\\xad/ERC721Mint.sol\":1112:1117  t + i */\n          tag_17\n          swap2\n          swap1\n          tag_18\n          jump\t// in\n        tag_17:\n            /* \"lesson/\\xe5\\xae\\x9e\\xe6\\x88\\x98\\xe7\\xbb\\x83\\xe4\\xb9\\xa0/\\xe7\\xa7\\x91\\xe5\\xad\\xa6\\xe5\\xae\\xb6NFT\\xe6\\x89\\xb9\\xe9\\x87\\x8f\\xe6\\x8a\\xa2\\xe8\\xb4\\xad/ERC721Mint.sol\":1061:1118  IERC721(ERC721).transferFrom(address(this), owner, t + i) */\n          mload(0x40)\n          dup5\n          0xffffffff\n          and\n          0xe0\n          shl\n          dup2\n          mstore\n          0x04\n          add\n          tag_19\n          swap4\n          swap3\n          swap2\n          swap1\n          tag_20\n          jump\t// in\n        tag_19:\n          0x00\n          mload(0x40)\n          dup1\n          dup4\n          sub\n          dup2\n          0x00\n          dup8\n          dup1\n          extcodesize\n          iszero\n          dup1\n          iszero\n          tag_21\n          jumpi\n          0x00\n          dup1\n          revert\n        tag_21:\n          pop\n          gas\n          call\n          iszero\n          dup1\n          iszero\n          tag_23\n          jumpi\n          returndatasize\n          0x00\n          dup1\n          returndatacopy\n          revert(0x00, returndatasize)\n        tag_23:\n          pop\n          pop\n          pop\n          pop\n            /* \"lesson/\\xe5\\xae\\x9e\\xe6\\x88\\x98\\xe7\\xbb\\x83\\xe4\\xb9\\xa0/\\xe7\\xa7\\x91\\xe5\\xad\\xa6\\xe5\\xae\\xb6NFT\\xe6\\x89\\xb9\\xe9\\x87\\x8f\\xe6\\x8a\\xa2\\xe8\\xb4\\xad/ERC721Mint.sol\":992:995  i++ */\n          dup1\n          dup1\n          tag_24\n          swap1\n          tag_25\n          jump\t// in\n        tag_24:\n          swap2\n          pop\n          pop\n            /* \"lesson/\\xe5\\xae\\x9e\\xe6\\x88\\x98\\xe7\\xbb\\x83\\xe4\\xb9\\xa0/\\xe7\\xa7\\x91\\xe5\\xad\\xa6\\xe5\\xae\\xb6NFT\\xe6\\x89\\xb9\\xe9\\x87\\x8f\\xe6\\x8a\\xa2\\xe8\\xb4\\xad/ERC721Mint.sol\":967:1121  for (uint i = 1; i <= 5; i++) {... */\n          jump(tag_14)\n        tag_15:\n          pop\n            /* \"lesson/\\xe5\\xae\\x9e\\xe6\\x88\\x98\\xe7\\xbb\\x83\\xe4\\xb9\\xa0/\\xe7\\xa7\\x91\\xe5\\xad\\xa6\\xe5\\xae\\xb6NFT\\xe6\\x89\\xb9\\xe9\\x87\\x8f\\xe6\\x8a\\xa2\\xe8\\xb4\\xad/ERC721Mint.sol\":1180:1185  owner */\n          dup2\n            /* \"lesson/\\xe5\\xae\\x9e\\xe6\\x88\\x98\\xe7\\xbb\\x83\\xe4\\xb9\\xa0/\\xe7\\xa7\\x91\\xe5\\xad\\xa6\\xe5\\xae\\xb6NFT\\xe6\\x89\\xb9\\xe9\\x87\\x8f\\xe6\\x8a\\xa2\\xe8\\xb4\\xad/ERC721Mint.sol\":1159:1187  selfdestruct(payable(owner)) */\n          0xffffffffffffffffffffffffffffffffffffffff\n          and\n          selfdestruct\n            /* \"#utility.yul\":88:205   */\n        tag_28:\n            /* \"#utility.yul\":197:198   */\n          0x00\n            /* \"#utility.yul\":194:195   */\n          dup1\n            /* \"#utility.yul\":187:199   */\n          revert\n            /* \"#utility.yul\":334:460   */\n        tag_30:\n            /* \"#utility.yul\":371:378   */\n          0x00\n            /* \"#utility.yul\":411:453   */\n          0xffffffffffffffffffffffffffffffffffffffff\n            /* \"#utility.yul\":404:409   */\n          dup3\n            /* \"#utility.yul\":400:454   */\n          and\n            /* \"#utility.yul\":389:454   */\n          swap1\n          pop\n            /* \"#utility.yul\":334:460   */\n          swap2\n          swap1\n          pop\n          jump\t// out\n            /* \"#utility.yul\":466:562   */\n        tag_31:\n            /* \"#utility.yul\":503:510   */\n          0x00\n            /* \"#utility.yul\":532:556   */\n          tag_50\n            /* \"#utility.yul\":550:555   */\n          dup3\n            /* \"#utility.yul\":532:556   */\n          tag_30\n          jump\t// in\n        tag_50:\n            /* \"#utility.yul\":521:556   */\n          swap1\n          pop\n            /* \"#utility.yul\":466:562   */\n          swap2\n          swap1\n          pop\n          jump\t// out\n            /* \"#utility.yul\":568:690   */\n        tag_32:\n            /* \"#utility.yul\":641:665   */\n          tag_52\n            /* \"#utility.yul\":659:664   */\n          dup2\n            /* \"#utility.yul\":641:665   */\n          tag_31\n          jump\t// in\n        tag_52:\n            /* \"#utility.yul\":634:639   */\n          dup2\n            /* \"#utility.yul\":631:666   */\n          eq\n            /* \"#utility.yul\":621:684   */\n          tag_53\n          jumpi\n            /* \"#utility.yul\":680:681   */\n          0x00\n            /* \"#utility.yul\":677:678   */\n          dup1\n            /* \"#utility.yul\":670:682   */\n          revert\n            /* \"#utility.yul\":621:684   */\n        tag_53:\n            /* \"#utility.yul\":568:690   */\n          pop\n          jump\t// out\n            /* \"#utility.yul\":696:839   */\n        tag_33:\n            /* \"#utility.yul\":753:758   */\n          0x00\n            /* \"#utility.yul\":784:790   */\n          dup2\n            /* \"#utility.yul\":778:791   */\n          mload\n            /* \"#utility.yul\":769:791   */\n          swap1\n          pop\n            /* \"#utility.yul\":800:833   */\n          tag_55\n            /* \"#utility.yul\":827:832   */\n          dup2\n            /* \"#utility.yul\":800:833   */\n          tag_32\n          jump\t// in\n        tag_55:\n            /* \"#utility.yul\":696:839   */\n          swap3\n          swap2\n          pop\n          pop\n          jump\t// out\n            /* \"#utility.yul\":845:1352   */\n        tag_2:\n            /* \"#utility.yul\":924:930   */\n          0x00\n            /* \"#utility.yul\":932:938   */\n          dup1\n            /* \"#utility.yul\":981:983   */\n          0x40\n            /* \"#utility.yul\":969:978   */\n          dup4\n            /* \"#utility.yul\":960:967   */\n          dup6\n            /* \"#utility.yul\":956:979   */\n          sub\n            /* \"#utility.yul\":952:984   */\n          slt\n            /* \"#utility.yul\":949:1068   */\n          iszero\n          tag_57\n          jumpi\n            /* \"#utility.yul\":987:1066   */\n          tag_58\n          tag_28\n          jump\t// in\n        tag_58:\n            /* \"#utility.yul\":949:1068   */\n        tag_57:\n            /* \"#utility.yul\":1107:1108   */\n          0x00\n            /* \"#utility.yul\":1132:1196   */\n          tag_59\n            /* \"#utility.yul\":1188:1195   */\n          dup6\n            /* \"#utility.yul\":1179:1185   */\n          dup3\n            /* \"#utility.yul\":1168:1177   */\n          dup7\n            /* \"#utility.yul\":1164:1186   */\n          add\n            /* \"#utility.yul\":1132:1196   */\n          tag_33\n          jump\t// in\n        tag_59:\n            /* \"#utility.yul\":1122:1196   */\n          swap3\n          pop\n            /* \"#utility.yul\":1078:1206   */\n          pop\n            /* \"#utility.yul\":1245:1247   */\n          0x20\n            /* \"#utility.yul\":1271:1335   */\n          tag_60\n            /* \"#utility.yul\":1327:1334   */\n          dup6\n            /* \"#utility.yul\":1318:1324   */\n          dup3\n            /* \"#utility.yul\":1307:1316   */\n          dup7\n            /* \"#utility.yul\":1303:1325   */\n          add\n            /* \"#utility.yul\":1271:1335   */\n          tag_33\n          jump\t// in\n        tag_60:\n            /* \"#utility.yul\":1261:1335   */\n          swap2\n          pop\n            /* \"#utility.yul\":1216:1345   */\n          pop\n            /* \"#utility.yul\":845:1352   */\n          swap3\n          pop\n          swap3\n          swap1\n          pop\n          jump\t// out\n            /* \"#utility.yul\":1358:1435   */\n        tag_34:\n            /* \"#utility.yul\":1395:1402   */\n          0x00\n            /* \"#utility.yul\":1424:1429   */\n          dup2\n            /* \"#utility.yul\":1413:1429   */\n          swap1\n          pop\n            /* \"#utility.yul\":1358:1435   */\n          swap2\n          swap1\n          pop\n          jump\t// out\n            /* \"#utility.yul\":1441:1563   */\n        tag_35:\n            /* \"#utility.yul\":1514:1538   */\n          tag_63\n            /* \"#utility.yul\":1532:1537   */\n          dup2\n            /* \"#utility.yul\":1514:1538   */\n          tag_34\n          jump\t// in\n        tag_63:\n            /* \"#utility.yul\":1507:1512   */\n          dup2\n            /* \"#utility.yul\":1504:1539   */\n          eq\n            /* \"#utility.yul\":1494:1557   */\n          tag_64\n          jumpi\n            /* \"#utility.yul\":1553:1554   */\n          0x00\n            /* \"#utility.yul\":1550:1551   */\n          dup1\n            /* \"#utility.yul\":1543:1555   */\n          revert\n            /* \"#utility.yul\":1494:1557   */\n        tag_64:\n            /* \"#utility.yul\":1441:1563   */\n          pop\n          jump\t// out\n            /* \"#utility.yul\":1569:1712   */\n        tag_36:\n            /* \"#utility.yul\":1626:1631   */\n          0x00\n            /* \"#utility.yul\":1657:1663   */\n          dup2\n            /* \"#utility.yul\":1651:1664   */\n          mload\n            /* \"#utility.yul\":1642:1664   */\n          swap1\n          pop\n            /* \"#utility.yul\":1673:1706   */\n          tag_66\n            /* \"#utility.yul\":1700:1705   */\n          dup2\n            /* \"#utility.yul\":1673:1706   */\n          tag_35\n          jump\t// in\n        tag_66:\n            /* \"#utility.yul\":1569:1712   */\n          swap3\n          swap2\n          pop\n          pop\n          jump\t// out\n            /* \"#utility.yul\":1718:2069   */\n        tag_8:\n            /* \"#utility.yul\":1788:1794   */\n          0x00\n            /* \"#utility.yul\":1837:1839   */\n          0x20\n            /* \"#utility.yul\":1825:1834   */\n          dup3\n            /* \"#utility.yul\":1816:1823   */\n          dup5\n            /* \"#utility.yul\":1812:1835   */\n          sub\n            /* \"#utility.yul\":1808:1840   */\n          slt\n            /* \"#utility.yul\":1805:1924   */\n          iszero\n          tag_68\n          jumpi\n            /* \"#utility.yul\":1843:1922   */\n          tag_69\n          tag_28\n          jump\t// in\n        tag_69:\n            /* \"#utility.yul\":1805:1924   */\n        tag_68:\n            /* \"#utility.yul\":1963:1964   */\n          0x00\n            /* \"#utility.yul\":1988:2052   */\n          tag_70\n            /* \"#utility.yul\":2044:2051   */\n          dup5\n            /* \"#utility.yul\":2035:2041   */\n          dup3\n            /* \"#utility.yul\":2024:2033   */\n          dup6\n            /* \"#utility.yul\":2020:2042   */\n          add\n            /* \"#utility.yul\":1988:2052   */\n          tag_36\n          jump\t// in\n        tag_70:\n            /* \"#utility.yul\":1978:2052   */\n          swap2\n          pop\n            /* \"#utility.yul\":1934:2062   */\n          pop\n            /* \"#utility.yul\":1718:2069   */\n          swap3\n          swap2\n          pop\n          pop\n          jump\t// out\n            /* \"#utility.yul\":2075:2160   */\n        tag_37:\n            /* \"#utility.yul\":2120:2127   */\n          0x00\n            /* \"#utility.yul\":2149:2154   */\n          dup2\n            /* \"#utility.yul\":2138:2154   */\n          swap1\n          pop\n            /* \"#utility.yul\":2075:2160   */\n          swap2\n          swap1\n          pop\n          jump\t// out\n            /* \"#utility.yul\":2166:2226   */\n        tag_38:\n            /* \"#utility.yul\":2194:2197   */\n          0x00\n            /* \"#utility.yul\":2215:2220   */\n          dup2\n            /* \"#utility.yul\":2208:2220   */\n          swap1\n          pop\n            /* \"#utility.yul\":2166:2226   */\n          swap2\n          swap1\n          pop\n          jump\t// out\n            /* \"#utility.yul\":2232:2390   */\n        tag_39:\n            /* \"#utility.yul\":2290:2299   */\n          0x00\n            /* \"#utility.yul\":2323:2384   */\n          tag_74\n            /* \"#utility.yul\":2341:2383   */\n          tag_75\n            /* \"#utility.yul\":2350:2382   */\n          tag_76\n            /* \"#utility.yul\":2376:2381   */\n          dup5\n            /* \"#utility.yul\":2350:2382   */\n          tag_37\n          jump\t// in\n        tag_76:\n            /* \"#utility.yul\":2341:2383   */\n          tag_38\n          jump\t// in\n        tag_75:\n            /* \"#utility.yul\":2323:2384   */\n          tag_34\n          jump\t// in\n        tag_74:\n            /* \"#utility.yul\":2310:2384   */\n          swap1\n          pop\n            /* \"#utility.yul\":2232:2390   */\n          swap2\n          swap1\n          pop\n          jump\t// out\n            /* \"#utility.yul\":2396:2543   */\n        tag_40:\n            /* \"#utility.yul\":2491:2536   */\n          tag_78\n            /* \"#utility.yul\":2530:2535   */\n          dup2\n            /* \"#utility.yul\":2491:2536   */\n          tag_39\n          jump\t// in\n        tag_78:\n            /* \"#utility.yul\":2486:2489   */\n          dup3\n            /* \"#utility.yul\":2479:2537   */\n          mstore\n            /* \"#utility.yul\":2396:2543   */\n          pop\n          pop\n          jump\t// out\n            /* \"#utility.yul\":2549:2787   */\n        tag_10:\n            /* \"#utility.yul\":2650:2654   */\n          0x00\n            /* \"#utility.yul\":2688:2690   */\n          0x20\n            /* \"#utility.yul\":2677:2686   */\n          dup3\n            /* \"#utility.yul\":2673:2691   */\n          add\n            /* \"#utility.yul\":2665:2691   */\n          swap1\n          pop\n            /* \"#utility.yul\":2701:2780   */\n          tag_80\n            /* \"#utility.yul\":2777:2778   */\n          0x00\n            /* \"#utility.yul\":2766:2775   */\n          dup4\n            /* \"#utility.yul\":2762:2779   */\n          add\n            /* \"#utility.yul\":2753:2759   */\n          dup5\n            /* \"#utility.yul\":2701:2780   */\n          tag_40\n          jump\t// in\n        tag_80:\n            /* \"#utility.yul\":2549:2787   */\n          swap3\n          swap2\n          pop\n          pop\n          jump\t// out\n            /* \"#utility.yul\":2793:2973   */\n        tag_41:\n            /* \"#utility.yul\":2841:2918   */\n          0x4e487b7100000000000000000000000000000000000000000000000000000000\n            /* \"#utility.yul\":2838:2839   */\n          0x00\n            /* \"#utility.yul\":2831:2919   */\n          mstore\n            /* \"#utility.yul\":2938:2942   */\n          0x11\n            /* \"#utility.yul\":2935:2936   */\n          0x04\n            /* \"#utility.yul\":2928:2943   */\n          mstore\n            /* \"#utility.yul\":2962:2966   */\n          0x24\n            /* \"#utility.yul\":2959:2960   */\n          0x00\n            /* \"#utility.yul\":2952:2967   */\n          revert\n            /* \"#utility.yul\":2979:3170   */\n        tag_18:\n            /* \"#utility.yul\":3019:3022   */\n          0x00\n            /* \"#utility.yul\":3038:3058   */\n          tag_83\n            /* \"#utility.yul\":3056:3057   */\n          dup3\n            /* \"#utility.yul\":3038:3058   */\n          tag_34\n          jump\t// in\n        tag_83:\n            /* \"#utility.yul\":3033:3058   */\n          swap2\n          pop\n            /* \"#utility.yul\":3072:3092   */\n          tag_84\n            /* \"#utility.yul\":3090:3091   */\n          dup4\n            /* \"#utility.yul\":3072:3092   */\n          tag_34\n          jump\t// in\n        tag_84:\n            /* \"#utility.yul\":3067:3092   */\n          swap3\n          pop\n            /* \"#utility.yul\":3115:3116   */\n          dup3\n            /* \"#utility.yul\":3112:3113   */\n          dup3\n            /* \"#utility.yul\":3108:3117   */\n          add\n            /* \"#utility.yul\":3101:3117   */\n          swap1\n          pop\n            /* \"#utility.yul\":3136:3139   */\n          dup1\n            /* \"#utility.yul\":3133:3134   */\n          dup3\n            /* \"#utility.yul\":3130:3140   */\n          gt\n            /* \"#utility.yul\":3127:3163   */\n          iszero\n          tag_85\n          jumpi\n            /* \"#utility.yul\":3143:3161   */\n          tag_86\n          tag_41\n          jump\t// in\n        tag_86:\n            /* \"#utility.yul\":3127:3163   */\n        tag_85:\n            /* \"#utility.yul\":2979:3170   */\n          swap3\n          swap2\n          pop\n          pop\n          jump\t// out\n            /* \"#utility.yul\":3176:3294   */\n        tag_42:\n            /* \"#utility.yul\":3263:3287   */\n          tag_88\n            /* \"#utility.yul\":3281:3286   */\n          dup2\n            /* \"#utility.yul\":3263:3287   */\n          tag_31\n          jump\t// in\n        tag_88:\n            /* \"#utility.yul\":3258:3261   */\n          dup3\n            /* \"#utility.yul\":3251:3288   */\n          mstore\n            /* \"#utility.yul\":3176:3294   */\n          pop\n          pop\n          jump\t// out\n            /* \"#utility.yul\":3300:3418   */\n        tag_43:\n            /* \"#utility.yul\":3387:3411   */\n          tag_90\n            /* \"#utility.yul\":3405:3410   */\n          dup2\n            /* \"#utility.yul\":3387:3411   */\n          tag_34\n          jump\t// in\n        tag_90:\n            /* \"#utility.yul\":3382:3385   */\n          dup3\n            /* \"#utility.yul\":3375:3412   */\n          mstore\n            /* \"#utility.yul\":3300:3418   */\n          pop\n          pop\n          jump\t// out\n            /* \"#utility.yul\":3424:3866   */\n        tag_20:\n            /* \"#utility.yul\":3573:3577   */\n          0x00\n            /* \"#utility.yul\":3611:3613   */\n          0x60\n            /* \"#utility.yul\":3600:3609   */\n          dup3\n            /* \"#utility.yul\":3596:3614   */\n          add\n            /* \"#utility.yul\":3588:3614   */\n          swap1\n          pop\n            /* \"#utility.yul\":3624:3695   */\n          tag_92\n            /* \"#utility.yul\":3692:3693   */\n          0x00\n            /* \"#utility.yul\":3681:3690   */\n          dup4\n            /* \"#utility.yul\":3677:3694   */\n          add\n            /* \"#utility.yul\":3668:3674   */\n          dup7\n            /* \"#utility.yul\":3624:3695   */\n          tag_42\n          jump\t// in\n        tag_92:\n            /* \"#utility.yul\":3705:3777   */\n          tag_93\n            /* \"#utility.yul\":3773:3775   */\n          0x20\n            /* \"#utility.yul\":3762:3771   */\n          dup4\n            /* \"#utility.yul\":3758:3776   */\n          add\n            /* \"#utility.yul\":3749:3755   */\n          dup6\n            /* \"#utility.yul\":3705:3777   */\n          tag_42\n          jump\t// in\n        tag_93:\n            /* \"#utility.yul\":3787:3859   */\n          tag_94\n            /* \"#utility.yul\":3855:3857   */\n          0x40\n            /* \"#utility.yul\":3844:3853   */\n          dup4\n            /* \"#utility.yul\":3840:3858   */\n          add\n            /* \"#utility.yul\":3831:3837   */\n          dup5\n            /* \"#utility.yul\":3787:3859   */\n          tag_43\n          jump\t// in\n        tag_94:\n            /* \"#utility.yul\":3424:3866   */\n          swap5\n          swap4\n          pop\n          pop\n          pop\n          pop\n          jump\t// out\n            /* \"#utility.yul\":3872:4105   */\n        tag_25:\n            /* \"#utility.yul\":3911:3914   */\n          0x00\n            /* \"#utility.yul\":3934:3958   */\n          tag_96\n            /* \"#utility.yul\":3952:3957   */\n          dup3\n            /* \"#utility.yul\":3934:3958   */\n          tag_34\n          jump\t// in\n        tag_96:\n            /* \"#utility.yul\":3925:3958   */\n          swap2\n          pop\n            /* \"#utility.yul\":3980:4046   */\n          0xffffffffffffffffffffffffffffffffffffffffffffffffffffffffffffffff\n            /* \"#utility.yul\":3973:3978   */\n          dup3\n            /* \"#utility.yul\":3970:4047   */\n          sub\n            /* \"#utility.yul\":3967:4070   */\n          tag_97\n          jumpi\n            /* \"#utility.yul\":4050:4068   */\n          tag_98\n          tag_41\n          jump\t// in\n        tag_98:\n            /* \"#utility.yul\":3967:4070   */\n        tag_97:\n            /* \"#utility.yul\":4097:4098   */\n          0x01\n            /* \"#utility.yul\":4090:4095   */\n          dup3\n            /* \"#utility.yul\":4086:4099   */\n          add\n            /* \"#utility.yul\":4079:4099   */\n          swap1\n          pop\n            /* \"#utility.yul\":3872:4105   */\n          swap2\n          swap1\n          pop\n          jump\t// out\n        stop\n\n        sub_0: assembly {\n                /* \"lesson/\\xe5\\xae\\x9e\\xe6\\x88\\x98\\xe7\\xbb\\x83\\xe4\\xb9\\xa0/\\xe7\\xa7\\x91\\xe5\\xad\\xa6\\xe5\\xae\\xb6NFT\\xe6\\x89\\xb9\\xe9\\x87\\x8f\\xe6\\x8a\\xa2\\xe8\\xb4\\xad/ERC721Mint.sol\":682:1192  contract ERC721Mint {... */\n              mstore(0x40, 0x80)\n              0x00\n              dup1\n              revert\n\n            auxdata: 0xa264697066735822122099dba2c933a1c2b8dc126c481e64baa52c03535223ba100db7f428dd2732cdbf64736f6c63430008110033\n        }\n    }\n\n    auxdata: 0xa26469706673582212203e4ec086b4b38b8f4acf1961bebe0d73284e5a1458dc6a1e55006bfc773d6c1d64736f6c63430008110033\n}\n",
				"bytecode": {
					"linkReferences": {},
					"object": "608060405234801561001057600080fd5b50336000806101000a81548173ffffffffffffffffffffffffffffffffffffffff021916908373ffffffffffffffffffffffffffffffffffffffff1602179055506106b6806100606000396000f3fe60806040526004361061001e5760003560e01c80634956eaf014610023575b600080fd5b61003d60048036038101906100389190610168565b61003f565b005b60005b818110156100bd5766b1a2bc2ec500008360008054906101000a900473ffffffffffffffffffffffffffffffffffffffff16604051610080906100c2565b61008b9291906101b7565b6040518091039082f09050801580156100a8573d6000803e3d6000fd5b505080806100b59061020f565b915050610042565b505050565b6104298061025883390190565b600080fd5b600073ffffffffffffffffffffffffffffffffffffffff82169050919050565b60006100ff826100d4565b9050919050565b61010f816100f4565b811461011a57600080fd5b50565b60008135905061012c81610106565b92915050565b6000819050919050565b61014581610132565b811461015057600080fd5b50565b6000813590506101628161013c565b92915050565b6000806040838503121561017f5761017e6100cf565b5b600061018d8582860161011d565b925050602061019e85828601610153565b9150509250929050565b6101b1816100f4565b82525050565b60006040820190506101cc60008301856101a8565b6101d960208301846101a8565b9392505050565b7f4e487b7100000000000000000000000000000000000000000000000000000000600052601160045260246000fd5b600061021a82610132565b91507fffffffffffffffffffffffffffffffffffffffffffffffffffffffffffffffff820361024c5761024b6101e0565b5b60018201905091905056fe608060405260405161042938038061042983398181016040528101906100259190610225565b60008273ffffffffffffffffffffffffffffffffffffffff166318160ddd6040518163ffffffff1660e01b8152600401602060405180830381865afa158015610072573d6000803e3d6000fd5b505050506040513d601f19601f82011682018060405250810190610096919061029b565b90508273ffffffffffffffffffffffffffffffffffffffff1663a0712d6866b1a2bc2ec5000060056040518363ffffffff1660e01b81526004016100da919061030d565b6000604051808303818588803b1580156100f357600080fd5b505af1158015610107573d6000803e3d6000fd5b50505050506000600190505b600581116101a8578373ffffffffffffffffffffffffffffffffffffffff166323b872dd308584866101459190610357565b6040518463ffffffff1660e01b8152600401610163939291906103a9565b600060405180830381600087803b15801561017d57600080fd5b505af1158015610191573d6000803e3d6000fd5b5050505080806101a0906103e0565b915050610113565b508173ffffffffffffffffffffffffffffffffffffffff16ff5b600080fd5b600073ffffffffffffffffffffffffffffffffffffffff82169050919050565b60006101f2826101c7565b9050919050565b610202816101e7565b811461020d57600080fd5b50565b60008151905061021f816101f9565b92915050565b6000806040838503121561023c5761023b6101c2565b5b600061024a85828601610210565b925050602061025b85828601610210565b9150509250929050565b6000819050919050565b61027881610265565b811461028357600080fd5b50565b6000815190506102958161026f565b92915050565b6000602082840312156102b1576102b06101c2565b5b60006102bf84828501610286565b91505092915050565b6000819050919050565b6000819050919050565b60006102f76102f26102ed846102c8565b6102d2565b610265565b9050919050565b610307816102dc565b82525050565b600060208201905061032260008301846102fe565b92915050565b7f4e487b7100000000000000000000000000000000000000000000000000000000600052601160045260246000fd5b600061036282610265565b915061036d83610265565b925082820190508082111561038557610384610328565b5b92915050565b610394816101e7565b82525050565b6103a381610265565b82525050565b60006060820190506103be600083018661038b565b6103cb602083018561038b565b6103d8604083018461039a565b949350505050565b60006103eb82610265565b91507fffffffffffffffffffffffffffffffffffffffffffffffffffffffffffffffff820361041d5761041c610328565b5b60018201905091905056fea26469706673582212203e4ec086b4b38b8f4acf1961bebe0d73284e5a1458dc6a1e55006bfc773d6c1d64736f6c63430008110033",
					"opcodes": "PUSH1 0x80 PUSH1 0x40 MSTORE CALLVALUE DUP1 ISZERO PUSH2 0x10 JUMPI PUSH1 0x0 DUP1 REVERT JUMPDEST POP CALLER PUSH1 0x0 DUP1 PUSH2 0x100 EXP DUP2 SLOAD DUP2 PUSH20 0xFFFFFFFFFFFFFFFFFFFFFFFFFFFFFFFFFFFFFFFF MUL NOT AND SWAP1 DUP4 PUSH20 0xFFFFFFFFFFFFFFFFFFFFFFFFFFFFFFFFFFFFFFFF AND MUL OR SWAP1 SSTORE POP PUSH2 0x6B6 DUP1 PUSH2 0x60 PUSH1 0x0 CODECOPY PUSH1 0x0 RETURN INVALID PUSH1 0x80 PUSH1 0x40 MSTORE PUSH1 0x4 CALLDATASIZE LT PUSH2 0x1E JUMPI PUSH1 0x0 CALLDATALOAD PUSH1 0xE0 SHR DUP1 PUSH4 0x4956EAF0 EQ PUSH2 0x23 JUMPI JUMPDEST PUSH1 0x0 DUP1 REVERT JUMPDEST PUSH2 0x3D PUSH1 0x4 DUP1 CALLDATASIZE SUB DUP2 ADD SWAP1 PUSH2 0x38 SWAP2 SWAP1 PUSH2 0x168 JUMP JUMPDEST PUSH2 0x3F JUMP JUMPDEST STOP JUMPDEST PUSH1 0x0 JUMPDEST DUP2 DUP2 LT ISZERO PUSH2 0xBD JUMPI PUSH7 0xB1A2BC2EC50000 DUP4 PUSH1 0x0 DUP1 SLOAD SWAP1 PUSH2 0x100 EXP SWAP1 DIV PUSH20 0xFFFFFFFFFFFFFFFFFFFFFFFFFFFFFFFFFFFFFFFF AND PUSH1 0x40 MLOAD PUSH2 0x80 SWAP1 PUSH2 0xC2 JUMP JUMPDEST PUSH2 0x8B SWAP3 SWAP2 SWAP1 PUSH2 0x1B7 JUMP JUMPDEST PUSH1 0x40 MLOAD DUP1 SWAP2 SUB SWAP1 DUP3 CREATE SWAP1 POP DUP1 ISZERO DUP1 ISZERO PUSH2 0xA8 JUMPI RETURNDATASIZE PUSH1 0x0 DUP1 RETURNDATACOPY RETURNDATASIZE PUSH1 0x0 REVERT JUMPDEST POP POP DUP1 DUP1 PUSH2 0xB5 SWAP1 PUSH2 0x20F JUMP JUMPDEST SWAP2 POP POP PUSH2 0x42 JUMP JUMPDEST POP POP POP JUMP JUMPDEST PUSH2 0x429 DUP1 PUSH2 0x258 DUP4 CODECOPY ADD SWAP1 JUMP JUMPDEST PUSH1 0x0 DUP1 REVERT JUMPDEST PUSH1 0x0 PUSH20 0xFFFFFFFFFFFFFFFFFFFFFFFFFFFFFFFFFFFFFFFF DUP3 AND SWAP1 POP SWAP2 SWAP1 POP JUMP JUMPDEST PUSH1 0x0 PUSH2 0xFF DUP3 PUSH2 0xD4 JUMP JUMPDEST SWAP1 POP SWAP2 SWAP1 POP JUMP JUMPDEST PUSH2 0x10F DUP2 PUSH2 0xF4 JUMP JUMPDEST DUP2 EQ PUSH2 0x11A JUMPI PUSH1 0x0 DUP1 REVERT JUMPDEST POP JUMP JUMPDEST PUSH1 0x0 DUP2 CALLDATALOAD SWAP1 POP PUSH2 0x12C DUP2 PUSH2 0x106 JUMP JUMPDEST SWAP3 SWAP2 POP POP JUMP JUMPDEST PUSH1 0x0 DUP2 SWAP1 POP SWAP2 SWAP1 POP JUMP JUMPDEST PUSH2 0x145 DUP2 PUSH2 0x132 JUMP JUMPDEST DUP2 EQ PUSH2 0x150 JUMPI PUSH1 0x0 DUP1 REVERT JUMPDEST POP JUMP JUMPDEST PUSH1 0x0 DUP2 CALLDATALOAD SWAP1 POP PUSH2 0x162 DUP2 PUSH2 0x13C JUMP JUMPDEST SWAP3 SWAP2 POP POP JUMP JUMPDEST PUSH1 0x0 DUP1 PUSH1 0x40 DUP4 DUP6 SUB SLT ISZERO PUSH2 0x17F JUMPI PUSH2 0x17E PUSH2 0xCF JUMP JUMPDEST JUMPDEST PUSH1 0x0 PUSH2 0x18D DUP6 DUP3 DUP7 ADD PUSH2 0x11D JUMP JUMPDEST SWAP3 POP POP PUSH1 0x20 PUSH2 0x19E DUP6 DUP3 DUP7 ADD PUSH2 0x153 JUMP JUMPDEST SWAP2 POP POP SWAP3 POP SWAP3 SWAP1 POP JUMP JUMPDEST PUSH2 0x1B1 DUP2 PUSH2 0xF4 JUMP JUMPDEST DUP3 MSTORE POP POP JUMP JUMPDEST PUSH1 0x0 PUSH1 0x40 DUP3 ADD SWAP1 POP PUSH2 0x1CC PUSH1 0x0 DUP4 ADD DUP6 PUSH2 0x1A8 JUMP JUMPDEST PUSH2 0x1D9 PUSH1 0x20 DUP4 ADD DUP5 PUSH2 0x1A8 JUMP JUMPDEST SWAP4 SWAP3 POP POP POP JUMP JUMPDEST PUSH32 0x4E487B7100000000000000000000000000000000000000000000000000000000 PUSH1 0x0 MSTORE PUSH1 0x11 PUSH1 0x4 MSTORE PUSH1 0x24 PUSH1 0x0 REVERT JUMPDEST PUSH1 0x0 PUSH2 0x21A DUP3 PUSH2 0x132 JUMP JUMPDEST SWAP2 POP PUSH32 0xFFFFFFFFFFFFFFFFFFFFFFFFFFFFFFFFFFFFFFFFFFFFFFFFFFFFFFFFFFFFFFFF DUP3 SUB PUSH2 0x24C JUMPI PUSH2 0x24B PUSH2 0x1E0 JUMP JUMPDEST JUMPDEST PUSH1 0x1 DUP3 ADD SWAP1 POP SWAP2 SWAP1 POP JUMP INVALID PUSH1 0x80 PUSH1 0x40 MSTORE PUSH1 0x40 MLOAD PUSH2 0x429 CODESIZE SUB DUP1 PUSH2 0x429 DUP4 CODECOPY DUP2 DUP2 ADD PUSH1 0x40 MSTORE DUP2 ADD SWAP1 PUSH2 0x25 SWAP2 SWAP1 PUSH2 0x225 JUMP JUMPDEST PUSH1 0x0 DUP3 PUSH20 0xFFFFFFFFFFFFFFFFFFFFFFFFFFFFFFFFFFFFFFFF AND PUSH4 0x18160DDD PUSH1 0x40 MLOAD DUP2 PUSH4 0xFFFFFFFF AND PUSH1 0xE0 SHL DUP2 MSTORE PUSH1 0x4 ADD PUSH1 0x20 PUSH1 0x40 MLOAD DUP1 DUP4 SUB DUP2 DUP7 GAS STATICCALL ISZERO DUP1 ISZERO PUSH2 0x72 JUMPI RETURNDATASIZE PUSH1 0x0 DUP1 RETURNDATACOPY RETURNDATASIZE PUSH1 0x0 REVERT JUMPDEST POP POP POP POP PUSH1 0x40 MLOAD RETURNDATASIZE PUSH1 0x1F NOT PUSH1 0x1F DUP3 ADD AND DUP3 ADD DUP1 PUSH1 0x40 MSTORE POP DUP2 ADD SWAP1 PUSH2 0x96 SWAP2 SWAP1 PUSH2 0x29B JUMP JUMPDEST SWAP1 POP DUP3 PUSH20 0xFFFFFFFFFFFFFFFFFFFFFFFFFFFFFFFFFFFFFFFF AND PUSH4 0xA0712D68 PUSH7 0xB1A2BC2EC50000 PUSH1 0x5 PUSH1 0x40 MLOAD DUP4 PUSH4 0xFFFFFFFF AND PUSH1 0xE0 SHL DUP2 MSTORE PUSH1 0x4 ADD PUSH2 0xDA SWAP2 SWAP1 PUSH2 0x30D JUMP JUMPDEST PUSH1 0x0 PUSH1 0x40 MLOAD DUP1 DUP4 SUB DUP2 DUP6 DUP9 DUP1 EXTCODESIZE ISZERO DUP1 ISZERO PUSH2 0xF3 JUMPI PUSH1 0x0 DUP1 REVERT JUMPDEST POP GAS CALL ISZERO DUP1 ISZERO PUSH2 0x107 JUMPI RETURNDATASIZE PUSH1 0x0 DUP1 RETURNDATACOPY RETURNDATASIZE PUSH1 0x0 REVERT JUMPDEST POP POP POP POP POP PUSH1 0x0 PUSH1 0x1 SWAP1 POP JUMPDEST PUSH1 0x5 DUP2 GT PUSH2 0x1A8 JUMPI DUP4 PUSH20 0xFFFFFFFFFFFFFFFFFFFFFFFFFFFFFFFFFFFFFFFF AND PUSH4 0x23B872DD ADDRESS DUP6 DUP5 DUP7 PUSH2 0x145 SWAP2 SWAP1 PUSH2 0x357 JUMP JUMPDEST PUSH1 0x40 MLOAD DUP5 PUSH4 0xFFFFFFFF AND PUSH1 0xE0 SHL DUP2 MSTORE PUSH1 0x4 ADD PUSH2 0x163 SWAP4 SWAP3 SWAP2 SWAP1 PUSH2 0x3A9 JUMP JUMPDEST PUSH1 0x0 PUSH1 0x40 MLOAD DUP1 DUP4 SUB DUP2 PUSH1 0x0 DUP8 DUP1 EXTCODESIZE ISZERO DUP1 ISZERO PUSH2 0x17D JUMPI PUSH1 0x0 DUP1 REVERT JUMPDEST POP GAS CALL ISZERO DUP1 ISZERO PUSH2 0x191 JUMPI RETURNDATASIZE PUSH1 0x0 DUP1 RETURNDATACOPY RETURNDATASIZE PUSH1 0x0 REVERT JUMPDEST POP POP POP POP DUP1 DUP1 PUSH2 0x1A0 SWAP1 PUSH2 0x3E0 JUMP JUMPDEST SWAP2 POP POP PUSH2 0x113 JUMP JUMPDEST POP DUP2 PUSH20 0xFFFFFFFFFFFFFFFFFFFFFFFFFFFFFFFFFFFFFFFF AND SELFDESTRUCT JUMPDEST PUSH1 0x0 DUP1 REVERT JUMPDEST PUSH1 0x0 PUSH20 0xFFFFFFFFFFFFFFFFFFFFFFFFFFFFFFFFFFFFFFFF DUP3 AND SWAP1 POP SWAP2 SWAP1 POP JUMP JUMPDEST PUSH1 0x0 PUSH2 0x1F2 DUP3 PUSH2 0x1C7 JUMP JUMPDEST SWAP1 POP SWAP2 SWAP1 POP JUMP JUMPDEST PUSH2 0x202 DUP2 PUSH2 0x1E7 JUMP JUMPDEST DUP2 EQ PUSH2 0x20D JUMPI PUSH1 0x0 DUP1 REVERT JUMPDEST POP JUMP JUMPDEST PUSH1 0x0 DUP2 MLOAD SWAP1 POP PUSH2 0x21F DUP2 PUSH2 0x1F9 JUMP JUMPDEST SWAP3 SWAP2 POP POP JUMP JUMPDEST PUSH1 0x0 DUP1 PUSH1 0x40 DUP4 DUP6 SUB SLT ISZERO PUSH2 0x23C JUMPI PUSH2 0x23B PUSH2 0x1C2 JUMP JUMPDEST JUMPDEST PUSH1 0x0 PUSH2 0x24A DUP6 DUP3 DUP7 ADD PUSH2 0x210 JUMP JUMPDEST SWAP3 POP POP PUSH1 0x20 PUSH2 0x25B DUP6 DUP3 DUP7 ADD PUSH2 0x210 JUMP JUMPDEST SWAP2 POP POP SWAP3 POP SWAP3 SWAP1 POP JUMP JUMPDEST PUSH1 0x0 DUP2 SWAP1 POP SWAP2 SWAP1 POP JUMP JUMPDEST PUSH2 0x278 DUP2 PUSH2 0x265 JUMP JUMPDEST DUP2 EQ PUSH2 0x283 JUMPI PUSH1 0x0 DUP1 REVERT JUMPDEST POP JUMP JUMPDEST PUSH1 0x0 DUP2 MLOAD SWAP1 POP PUSH2 0x295 DUP2 PUSH2 0x26F JUMP JUMPDEST SWAP3 SWAP2 POP POP JUMP JUMPDEST PUSH1 0x0 PUSH1 0x20 DUP3 DUP5 SUB SLT ISZERO PUSH2 0x2B1 JUMPI PUSH2 0x2B0 PUSH2 0x1C2 JUMP JUMPDEST JUMPDEST PUSH1 0x0 PUSH2 0x2BF DUP5 DUP3 DUP6 ADD PUSH2 0x286 JUMP JUMPDEST SWAP2 POP POP SWAP3 SWAP2 POP POP JUMP JUMPDEST PUSH1 0x0 DUP2 SWAP1 POP SWAP2 SWAP1 POP JUMP JUMPDEST PUSH1 0x0 DUP2 SWAP1 POP SWAP2 SWAP1 POP JUMP JUMPDEST PUSH1 0x0 PUSH2 0x2F7 PUSH2 0x2F2 PUSH2 0x2ED DUP5 PUSH2 0x2C8 JUMP JUMPDEST PUSH2 0x2D2 JUMP JUMPDEST PUSH2 0x265 JUMP JUMPDEST SWAP1 POP SWAP2 SWAP1 POP JUMP JUMPDEST PUSH2 0x307 DUP2 PUSH2 0x2DC JUMP JUMPDEST DUP3 MSTORE POP POP JUMP JUMPDEST PUSH1 0x0 PUSH1 0x20 DUP3 ADD SWAP1 POP PUSH2 0x322 PUSH1 0x0 DUP4 ADD DUP5 PUSH2 0x2FE JUMP JUMPDEST SWAP3 SWAP2 POP POP JUMP JUMPDEST PUSH32 0x4E487B7100000000000000000000000000000000000000000000000000000000 PUSH1 0x0 MSTORE PUSH1 0x11 PUSH1 0x4 MSTORE PUSH1 0x24 PUSH1 0x0 REVERT JUMPDEST PUSH1 0x0 PUSH2 0x362 DUP3 PUSH2 0x265 JUMP JUMPDEST SWAP2 POP PUSH2 0x36D DUP4 PUSH2 0x265 JUMP JUMPDEST SWAP3 POP DUP3 DUP3 ADD SWAP1 POP DUP1 DUP3 GT ISZERO PUSH2 0x385 JUMPI PUSH2 0x384 PUSH2 0x328 JUMP JUMPDEST JUMPDEST SWAP3 SWAP2 POP POP JUMP JUMPDEST PUSH2 0x394 DUP2 PUSH2 0x1E7 JUMP JUMPDEST DUP3 MSTORE POP POP JUMP JUMPDEST PUSH2 0x3A3 DUP2 PUSH2 0x265 JUMP JUMPDEST DUP3 MSTORE POP POP JUMP JUMPDEST PUSH1 0x0 PUSH1 0x60 DUP3 ADD SWAP1 POP PUSH2 0x3BE PUSH1 0x0 DUP4 ADD DUP7 PUSH2 0x38B JUMP JUMPDEST PUSH2 0x3CB PUSH1 0x20 DUP4 ADD DUP6 PUSH2 0x38B JUMP JUMPDEST PUSH2 0x3D8 PUSH1 0x40 DUP4 ADD DUP5 PUSH2 0x39A JUMP JUMPDEST SWAP5 SWAP4 POP POP POP POP JUMP JUMPDEST PUSH1 0x0 PUSH2 0x3EB DUP3 PUSH2 0x265 JUMP JUMPDEST SWAP2 POP PUSH32 0xFFFFFFFFFFFFFFFFFFFFFFFFFFFFFFFFFFFFFFFFFFFFFFFFFFFFFFFFFFFFFFFF DUP3 SUB PUSH2 0x41D JUMPI PUSH2 0x41C PUSH2 0x328 JUMP JUMPDEST JUMPDEST PUSH1 0x1 DUP3 ADD SWAP1 POP SWAP2 SWAP1 POP JUMP INVALID LOG2 PUSH5 0x6970667358 0x22 SLT KECCAK256 RETURNDATACOPY 0x4E 0xC0 DUP7 0xB4 0xB3 DUP12 DUP16 0x4A 0xCF NOT PUSH2 0xBEBE 0xD PUSH20 0x284E5A1458DC6A1E55006BFC773D6C1D64736F6C PUSH4 0x43000811 STOP CALLER "
				},
				"gasEstimates": {
					"creation": {
						"codeDepositCost": "343600",
						"executionCost": "24646",
						"totalCost": "368246"
					},
					"external": {
						"deploy(address,uint256)": "infinite"
					}
				},
				"methodIdentifiers": {
					"deploy(address,uint256)": "4956eaf0"
				}
			},
			"storageLayout": {
				"storage": [
					{
						"astId": 82,
						"contract": "lesson/实战练习/科学家NFT批量抢购/ERC721Mint.sol:MintFactory",
						"label": "owner",
						"offset": 0,
						"slot": "0",
						"type": "t_address"
					}
				],
				"types": {
					"t_address": {
						"encoding": "inplace",
						"label": "address",
						"numberOfBytes": "20"
					}
				}
			},
			"userdoc": {
				"kind": "user",
				"methods": {},
				"version": 1
			}
		}
	}
}