{
	"lesson/Call3.sol": {
		"Receiver": {
			"abi": [
				{
					"anonymous": false,
					"inputs": [
						{
							"indexed": false,
							"internalType": "address",
							"name": "caller",
							"type": "address"
						},
						{
							"indexed": false,
							"internalType": "uint256",
							"name": "amount",
							"type": "uint256"
						},
						{
							"indexed": false,
							"internalType": "string",
							"name": "message",
							"type": "string"
						}
					],
					"name": "Received",
					"type": "event"
				},
				{
					"anonymous": false,
					"inputs": [
						{
							"indexed": false,
							"internalType": "address",
							"name": "Sender",
							"type": "address"
						},
						{
							"indexed": false,
							"internalType": "uint256",
							"name": "Value",
							"type": "uint256"
						}
					],
					"name": "receivedCalled",
					"type": "event"
				},
				{
					"stateMutability": "payable",
					"type": "fallback"
				},
				{
					"inputs": [
						{
							"internalType": "string",
							"name": "_message",
							"type": "string"
						},
						{
							"internalType": "uint256",
							"name": "_x",
							"type": "uint256"
						}
					],
					"name": "foo",
					"outputs": [
						{
							"internalType": "uint256",
							"name": "",
							"type": "uint256"
						}
					],
					"stateMutability": "payable",
					"type": "function"
				},
				{
					"stateMutability": "payable",
					"type": "receive"
				}
			],
			"devdoc": {
				"kind": "dev",
				"methods": {},
				"version": 1
			},
			"evm": {
				"assembly": "    /* \"lesson/Call3.sol\":58:626  contract Receiver {... */\n  mstore(0x40, 0x80)\n  callvalue\n  dup1\n  iszero\n  tag_1\n  jumpi\n  0x00\n  dup1\n  revert\ntag_1:\n  pop\n  dataSize(sub_0)\n  dup1\n  dataOffset(sub_0)\n  0x00\n  codecopy\n  0x00\n  return\nstop\n\nsub_0: assembly {\n        /* \"lesson/Call3.sol\":58:626  contract Receiver {... */\n      mstore(0x40, 0x80)\n      jumpi(tag_1, lt(calldatasize, 0x04))\n      shr(0xe0, calldataload(0x00))\n      dup1\n      0x24ccab8f\n      eq\n      tag_3\n      jumpi\n      jump(tag_2)\n    tag_1:\n      jumpi(tag_2, calldatasize)\n        /* \"lesson/Call3.sol\":302:339  receivedCalled(msg.sender, msg.value) */\n      0x24feae88ede5c2d07f0ca617a259e25baf86481eafba06bc78af89772bc0b6b7\n        /* \"lesson/Call3.sol\":317:327  msg.sender */\n      caller\n        /* \"lesson/Call3.sol\":329:338  msg.value */\n      callvalue\n        /* \"lesson/Call3.sol\":302:339  receivedCalled(msg.sender, msg.value) */\n      mload(0x40)\n      tag_6\n      swap3\n      swap2\n      swap1\n      tag_7\n      jump\t// in\n    tag_6:\n      mload(0x40)\n      dup1\n      swap2\n      sub\n      swap1\n      log1\n        /* \"lesson/Call3.sol\":58:626  contract Receiver {... */\n      stop\n    tag_2:\n        /* \"lesson/Call3.sol\":394:448  Received(msg.sender, msg.value, \"Fallback was called\") */\n      0x59e04c3f0d44b7caf6e8ef854b61d9a51cf1960d7a88ff6356cc5e946b4b5832\n        /* \"lesson/Call3.sol\":403:413  msg.sender */\n      caller\n        /* \"lesson/Call3.sol\":415:424  msg.value */\n      callvalue\n        /* \"lesson/Call3.sol\":394:448  Received(msg.sender, msg.value, \"Fallback was called\") */\n      mload(0x40)\n      tag_10\n      swap3\n      swap2\n      swap1\n      tag_11\n      jump\t// in\n    tag_10:\n      mload(0x40)\n      dup1\n      swap2\n      sub\n      swap1\n      log1\n        /* \"lesson/Call3.sol\":58:626  contract Receiver {... */\n      stop\n        /* \"lesson/Call3.sol\":461:624  function foo(string memory _message, uint _x) public payable returns (uint) {... */\n    tag_3:\n      tag_12\n      0x04\n      dup1\n      calldatasize\n      sub\n      dup2\n      add\n      swap1\n      tag_13\n      swap2\n      swap1\n      tag_14\n      jump\t// in\n    tag_13:\n      tag_15\n      jump\t// in\n    tag_12:\n      mload(0x40)\n      tag_16\n      swap2\n      swap1\n      tag_17\n      jump\t// in\n    tag_16:\n      mload(0x40)\n      dup1\n      swap2\n      sub\n      swap1\n      return\n    tag_15:\n        /* \"lesson/Call3.sol\":531:535  uint */\n      0x00\n        /* \"lesson/Call3.sol\":552:593  Received(msg.sender, msg.value, _message) */\n      0x59e04c3f0d44b7caf6e8ef854b61d9a51cf1960d7a88ff6356cc5e946b4b5832\n        /* \"lesson/Call3.sol\":561:571  msg.sender */\n      caller\n        /* \"lesson/Call3.sol\":573:582  msg.value */\n      callvalue\n        /* \"lesson/Call3.sol\":584:592  _message */\n      dup6\n        /* \"lesson/Call3.sol\":552:593  Received(msg.sender, msg.value, _message) */\n      mload(0x40)\n      tag_19\n      swap4\n      swap3\n      swap2\n      swap1\n      tag_20\n      jump\t// in\n    tag_19:\n      mload(0x40)\n      dup1\n      swap2\n      sub\n      swap1\n      log1\n        /* \"lesson/Call3.sol\":616:617  1 */\n      0x01\n        /* \"lesson/Call3.sol\":611:613  _x */\n      dup3\n        /* \"lesson/Call3.sol\":611:617  _x + 1 */\n      tag_21\n      swap2\n      swap1\n      tag_22\n      jump\t// in\n    tag_21:\n        /* \"lesson/Call3.sol\":604:617  return _x + 1 */\n      swap1\n      pop\n        /* \"lesson/Call3.sol\":461:624  function foo(string memory _message, uint _x) public payable returns (uint) {... */\n      swap3\n      swap2\n      pop\n      pop\n      jump\t// out\n        /* \"#utility.yul\":7:133   */\n    tag_23:\n        /* \"#utility.yul\":44:51   */\n      0x00\n        /* \"#utility.yul\":84:126   */\n      0xffffffffffffffffffffffffffffffffffffffff\n        /* \"#utility.yul\":77:82   */\n      dup3\n        /* \"#utility.yul\":73:127   */\n      and\n        /* \"#utility.yul\":62:127   */\n      swap1\n      pop\n        /* \"#utility.yul\":7:133   */\n      swap2\n      swap1\n      pop\n      jump\t// out\n        /* \"#utility.yul\":139:235   */\n    tag_24:\n        /* \"#utility.yul\":176:183   */\n      0x00\n        /* \"#utility.yul\":205:229   */\n      tag_53\n        /* \"#utility.yul\":223:228   */\n      dup3\n        /* \"#utility.yul\":205:229   */\n      tag_23\n      jump\t// in\n    tag_53:\n        /* \"#utility.yul\":194:229   */\n      swap1\n      pop\n        /* \"#utility.yul\":139:235   */\n      swap2\n      swap1\n      pop\n      jump\t// out\n        /* \"#utility.yul\":241:359   */\n    tag_25:\n        /* \"#utility.yul\":328:352   */\n      tag_55\n        /* \"#utility.yul\":346:351   */\n      dup2\n        /* \"#utility.yul\":328:352   */\n      tag_24\n      jump\t// in\n    tag_55:\n        /* \"#utility.yul\":323:326   */\n      dup3\n        /* \"#utility.yul\":316:353   */\n      mstore\n        /* \"#utility.yul\":241:359   */\n      pop\n      pop\n      jump\t// out\n        /* \"#utility.yul\":365:442   */\n    tag_26:\n        /* \"#utility.yul\":402:409   */\n      0x00\n        /* \"#utility.yul\":431:436   */\n      dup2\n        /* \"#utility.yul\":420:436   */\n      swap1\n      pop\n        /* \"#utility.yul\":365:442   */\n      swap2\n      swap1\n      pop\n      jump\t// out\n        /* \"#utility.yul\":448:566   */\n    tag_27:\n        /* \"#utility.yul\":535:559   */\n      tag_58\n        /* \"#utility.yul\":553:558   */\n      dup2\n        /* \"#utility.yul\":535:559   */\n      tag_26\n      jump\t// in\n    tag_58:\n        /* \"#utility.yul\":530:533   */\n      dup3\n        /* \"#utility.yul\":523:560   */\n      mstore\n        /* \"#utility.yul\":448:566   */\n      pop\n      pop\n      jump\t// out\n        /* \"#utility.yul\":572:904   */\n    tag_7:\n        /* \"#utility.yul\":693:697   */\n      0x00\n        /* \"#utility.yul\":731:733   */\n      0x40\n        /* \"#utility.yul\":720:729   */\n      dup3\n        /* \"#utility.yul\":716:734   */\n      add\n        /* \"#utility.yul\":708:734   */\n      swap1\n      pop\n        /* \"#utility.yul\":744:815   */\n      tag_60\n        /* \"#utility.yul\":812:813   */\n      0x00\n        /* \"#utility.yul\":801:810   */\n      dup4\n        /* \"#utility.yul\":797:814   */\n      add\n        /* \"#utility.yul\":788:794   */\n      dup6\n        /* \"#utility.yul\":744:815   */\n      tag_25\n      jump\t// in\n    tag_60:\n        /* \"#utility.yul\":825:897   */\n      tag_61\n        /* \"#utility.yul\":893:895   */\n      0x20\n        /* \"#utility.yul\":882:891   */\n      dup4\n        /* \"#utility.yul\":878:896   */\n      add\n        /* \"#utility.yul\":869:875   */\n      dup5\n        /* \"#utility.yul\":825:897   */\n      tag_27\n      jump\t// in\n    tag_61:\n        /* \"#utility.yul\":572:904   */\n      swap4\n      swap3\n      pop\n      pop\n      pop\n      jump\t// out\n        /* \"#utility.yul\":910:1079   */\n    tag_28:\n        /* \"#utility.yul\":994:1005   */\n      0x00\n        /* \"#utility.yul\":1028:1034   */\n      dup3\n        /* \"#utility.yul\":1023:1026   */\n      dup3\n        /* \"#utility.yul\":1016:1035   */\n      mstore\n        /* \"#utility.yul\":1068:1072   */\n      0x20\n        /* \"#utility.yul\":1063:1066   */\n      dup3\n        /* \"#utility.yul\":1059:1073   */\n      add\n        /* \"#utility.yul\":1044:1073   */\n      swap1\n      pop\n        /* \"#utility.yul\":910:1079   */\n      swap3\n      swap2\n      pop\n      pop\n      jump\t// out\n        /* \"#utility.yul\":1085:1254   */\n    tag_29:\n        /* \"#utility.yul\":1225:1246   */\n      0x46616c6c6261636b207761732063616c6c656400000000000000000000000000\n        /* \"#utility.yul\":1221:1222   */\n      0x00\n        /* \"#utility.yul\":1213:1219   */\n      dup3\n        /* \"#utility.yul\":1209:1223   */\n      add\n        /* \"#utility.yul\":1202:1247   */\n      mstore\n        /* \"#utility.yul\":1085:1254   */\n      pop\n      jump\t// out\n        /* \"#utility.yul\":1260:1626   */\n    tag_30:\n        /* \"#utility.yul\":1402:1405   */\n      0x00\n        /* \"#utility.yul\":1423:1490   */\n      tag_65\n        /* \"#utility.yul\":1487:1489   */\n      0x13\n        /* \"#utility.yul\":1482:1485   */\n      dup4\n        /* \"#utility.yul\":1423:1490   */\n      tag_28\n      jump\t// in\n    tag_65:\n        /* \"#utility.yul\":1416:1490   */\n      swap2\n      pop\n        /* \"#utility.yul\":1499:1592   */\n      tag_66\n        /* \"#utility.yul\":1588:1591   */\n      dup3\n        /* \"#utility.yul\":1499:1592   */\n      tag_29\n      jump\t// in\n    tag_66:\n        /* \"#utility.yul\":1617:1619   */\n      0x20\n        /* \"#utility.yul\":1612:1615   */\n      dup3\n        /* \"#utility.yul\":1608:1620   */\n      add\n        /* \"#utility.yul\":1601:1620   */\n      swap1\n      pop\n        /* \"#utility.yul\":1260:1626   */\n      swap2\n      swap1\n      pop\n      jump\t// out\n        /* \"#utility.yul\":1632:2271   */\n    tag_11:\n        /* \"#utility.yul\":1854:1858   */\n      0x00\n        /* \"#utility.yul\":1892:1894   */\n      0x60\n        /* \"#utility.yul\":1881:1890   */\n      dup3\n        /* \"#utility.yul\":1877:1895   */\n      add\n        /* \"#utility.yul\":1869:1895   */\n      swap1\n      pop\n        /* \"#utility.yul\":1905:1976   */\n      tag_68\n        /* \"#utility.yul\":1973:1974   */\n      0x00\n        /* \"#utility.yul\":1962:1971   */\n      dup4\n        /* \"#utility.yul\":1958:1975   */\n      add\n        /* \"#utility.yul\":1949:1955   */\n      dup6\n        /* \"#utility.yul\":1905:1976   */\n      tag_25\n      jump\t// in\n    tag_68:\n        /* \"#utility.yul\":1986:2058   */\n      tag_69\n        /* \"#utility.yul\":2054:2056   */\n      0x20\n        /* \"#utility.yul\":2043:2052   */\n      dup4\n        /* \"#utility.yul\":2039:2057   */\n      add\n        /* \"#utility.yul\":2030:2036   */\n      dup5\n        /* \"#utility.yul\":1986:2058   */\n      tag_27\n      jump\t// in\n    tag_69:\n        /* \"#utility.yul\":2105:2114   */\n      dup2\n        /* \"#utility.yul\":2099:2103   */\n      dup2\n        /* \"#utility.yul\":2095:2115   */\n      sub\n        /* \"#utility.yul\":2090:2092   */\n      0x40\n        /* \"#utility.yul\":2079:2088   */\n      dup4\n        /* \"#utility.yul\":2075:2093   */\n      add\n        /* \"#utility.yul\":2068:2116   */\n      mstore\n        /* \"#utility.yul\":2133:2264   */\n      tag_70\n        /* \"#utility.yul\":2259:2263   */\n      dup2\n        /* \"#utility.yul\":2133:2264   */\n      tag_30\n      jump\t// in\n    tag_70:\n        /* \"#utility.yul\":2125:2264   */\n      swap1\n      pop\n        /* \"#utility.yul\":1632:2271   */\n      swap4\n      swap3\n      pop\n      pop\n      pop\n      jump\t// out\n        /* \"#utility.yul\":2277:2352   */\n    tag_31:\n        /* \"#utility.yul\":2310:2316   */\n      0x00\n        /* \"#utility.yul\":2343:2345   */\n      0x40\n        /* \"#utility.yul\":2337:2346   */\n      mload\n        /* \"#utility.yul\":2327:2346   */\n      swap1\n      pop\n        /* \"#utility.yul\":2277:2352   */\n      swap1\n      jump\t// out\n        /* \"#utility.yul\":2358:2475   */\n    tag_32:\n        /* \"#utility.yul\":2467:2468   */\n      0x00\n        /* \"#utility.yul\":2464:2465   */\n      dup1\n        /* \"#utility.yul\":2457:2469   */\n      revert\n        /* \"#utility.yul\":2481:2598   */\n    tag_33:\n        /* \"#utility.yul\":2590:2591   */\n      0x00\n        /* \"#utility.yul\":2587:2588   */\n      dup1\n        /* \"#utility.yul\":2580:2592   */\n      revert\n        /* \"#utility.yul\":2604:2721   */\n    tag_34:\n        /* \"#utility.yul\":2713:2714   */\n      0x00\n        /* \"#utility.yul\":2710:2711   */\n      dup1\n        /* \"#utility.yul\":2703:2715   */\n      revert\n        /* \"#utility.yul\":2727:2844   */\n    tag_35:\n        /* \"#utility.yul\":2836:2837   */\n      0x00\n        /* \"#utility.yul\":2833:2834   */\n      dup1\n        /* \"#utility.yul\":2826:2838   */\n      revert\n        /* \"#utility.yul\":2850:2952   */\n    tag_36:\n        /* \"#utility.yul\":2891:2897   */\n      0x00\n        /* \"#utility.yul\":2942:2944   */\n      0x1f\n        /* \"#utility.yul\":2938:2945   */\n      not\n        /* \"#utility.yul\":2933:2935   */\n      0x1f\n        /* \"#utility.yul\":2926:2931   */\n      dup4\n        /* \"#utility.yul\":2922:2936   */\n      add\n        /* \"#utility.yul\":2918:2946   */\n      and\n        /* \"#utility.yul\":2908:2946   */\n      swap1\n      pop\n        /* \"#utility.yul\":2850:2952   */\n      swap2\n      swap1\n      pop\n      jump\t// out\n        /* \"#utility.yul\":2958:3138   */\n    tag_37:\n        /* \"#utility.yul\":3006:3083   */\n      0x4e487b7100000000000000000000000000000000000000000000000000000000\n        /* \"#utility.yul\":3003:3004   */\n      0x00\n        /* \"#utility.yul\":2996:3084   */\n      mstore\n        /* \"#utility.yul\":3103:3107   */\n      0x41\n        /* \"#utility.yul\":3100:3101   */\n      0x04\n        /* \"#utility.yul\":3093:3108   */\n      mstore\n        /* \"#utility.yul\":3127:3131   */\n      0x24\n        /* \"#utility.yul\":3124:3125   */\n      0x00\n        /* \"#utility.yul\":3117:3132   */\n      revert\n        /* \"#utility.yul\":3144:3425   */\n    tag_38:\n        /* \"#utility.yul\":3227:3254   */\n      tag_79\n        /* \"#utility.yul\":3249:3253   */\n      dup3\n        /* \"#utility.yul\":3227:3254   */\n      tag_36\n      jump\t// in\n    tag_79:\n        /* \"#utility.yul\":3219:3225   */\n      dup2\n        /* \"#utility.yul\":3215:3255   */\n      add\n        /* \"#utility.yul\":3357:3363   */\n      dup2\n        /* \"#utility.yul\":3345:3355   */\n      dup2\n        /* \"#utility.yul\":3342:3364   */\n      lt\n        /* \"#utility.yul\":3321:3339   */\n      0xffffffffffffffff\n        /* \"#utility.yul\":3309:3319   */\n      dup3\n        /* \"#utility.yul\":3306:3340   */\n      gt\n        /* \"#utility.yul\":3303:3365   */\n      or\n        /* \"#utility.yul\":3300:3388   */\n      iszero\n      tag_80\n      jumpi\n        /* \"#utility.yul\":3368:3386   */\n      tag_81\n      tag_37\n      jump\t// in\n    tag_81:\n        /* \"#utility.yul\":3300:3388   */\n    tag_80:\n        /* \"#utility.yul\":3408:3418   */\n      dup1\n        /* \"#utility.yul\":3404:3406   */\n      0x40\n        /* \"#utility.yul\":3397:3419   */\n      mstore\n        /* \"#utility.yul\":3187:3425   */\n      pop\n        /* \"#utility.yul\":3144:3425   */\n      pop\n      pop\n      jump\t// out\n        /* \"#utility.yul\":3431:3560   */\n    tag_39:\n        /* \"#utility.yul\":3465:3471   */\n      0x00\n        /* \"#utility.yul\":3492:3512   */\n      tag_83\n      tag_31\n      jump\t// in\n    tag_83:\n        /* \"#utility.yul\":3482:3512   */\n      swap1\n      pop\n        /* \"#utility.yul\":3521:3554   */\n      tag_84\n        /* \"#utility.yul\":3549:3553   */\n      dup3\n        /* \"#utility.yul\":3541:3547   */\n      dup3\n        /* \"#utility.yul\":3521:3554   */\n      tag_38\n      jump\t// in\n    tag_84:\n        /* \"#utility.yul\":3431:3560   */\n      swap2\n      swap1\n      pop\n      jump\t// out\n        /* \"#utility.yul\":3566:3874   */\n    tag_40:\n        /* \"#utility.yul\":3628:3632   */\n      0x00\n        /* \"#utility.yul\":3718:3736   */\n      0xffffffffffffffff\n        /* \"#utility.yul\":3710:3716   */\n      dup3\n        /* \"#utility.yul\":3707:3737   */\n      gt\n        /* \"#utility.yul\":3704:3760   */\n      iszero\n      tag_86\n      jumpi\n        /* \"#utility.yul\":3740:3758   */\n      tag_87\n      tag_37\n      jump\t// in\n    tag_87:\n        /* \"#utility.yul\":3704:3760   */\n    tag_86:\n        /* \"#utility.yul\":3778:3807   */\n      tag_88\n        /* \"#utility.yul\":3800:3806   */\n      dup3\n        /* \"#utility.yul\":3778:3807   */\n      tag_36\n      jump\t// in\n    tag_88:\n        /* \"#utility.yul\":3770:3807   */\n      swap1\n      pop\n        /* \"#utility.yul\":3862:3866   */\n      0x20\n        /* \"#utility.yul\":3856:3860   */\n      dup2\n        /* \"#utility.yul\":3852:3867   */\n      add\n        /* \"#utility.yul\":3844:3867   */\n      swap1\n      pop\n        /* \"#utility.yul\":3566:3874   */\n      swap2\n      swap1\n      pop\n      jump\t// out\n        /* \"#utility.yul\":3880:4026   */\n    tag_41:\n        /* \"#utility.yul\":3977:3983   */\n      dup3\n        /* \"#utility.yul\":3972:3975   */\n      dup2\n        /* \"#utility.yul\":3967:3970   */\n      dup4\n        /* \"#utility.yul\":3954:3984   */\n      calldatacopy\n        /* \"#utility.yul\":4018:4019   */\n      0x00\n        /* \"#utility.yul\":4009:4015   */\n      dup4\n        /* \"#utility.yul\":4004:4007   */\n      dup4\n        /* \"#utility.yul\":4000:4016   */\n      add\n        /* \"#utility.yul\":3993:4020   */\n      mstore\n        /* \"#utility.yul\":3880:4026   */\n      pop\n      pop\n      pop\n      jump\t// out\n        /* \"#utility.yul\":4032:4457   */\n    tag_42:\n        /* \"#utility.yul\":4110:4115   */\n      0x00\n        /* \"#utility.yul\":4135:4201   */\n      tag_91\n        /* \"#utility.yul\":4151:4200   */\n      tag_92\n        /* \"#utility.yul\":4193:4199   */\n      dup5\n        /* \"#utility.yul\":4151:4200   */\n      tag_40\n      jump\t// in\n    tag_92:\n        /* \"#utility.yul\":4135:4201   */\n      tag_39\n      jump\t// in\n    tag_91:\n        /* \"#utility.yul\":4126:4201   */\n      swap1\n      pop\n        /* \"#utility.yul\":4224:4230   */\n      dup3\n        /* \"#utility.yul\":4217:4222   */\n      dup2\n        /* \"#utility.yul\":4210:4231   */\n      mstore\n        /* \"#utility.yul\":4262:4266   */\n      0x20\n        /* \"#utility.yul\":4255:4260   */\n      dup2\n        /* \"#utility.yul\":4251:4267   */\n      add\n        /* \"#utility.yul\":4300:4303   */\n      dup5\n        /* \"#utility.yul\":4291:4297   */\n      dup5\n        /* \"#utility.yul\":4286:4289   */\n      dup5\n        /* \"#utility.yul\":4282:4298   */\n      add\n        /* \"#utility.yul\":4279:4304   */\n      gt\n        /* \"#utility.yul\":4276:4388   */\n      iszero\n      tag_93\n      jumpi\n        /* \"#utility.yul\":4307:4386   */\n      tag_94\n      tag_35\n      jump\t// in\n    tag_94:\n        /* \"#utility.yul\":4276:4388   */\n    tag_93:\n        /* \"#utility.yul\":4397:4451   */\n      tag_95\n        /* \"#utility.yul\":4444:4450   */\n      dup5\n        /* \"#utility.yul\":4439:4442   */\n      dup3\n        /* \"#utility.yul\":4434:4437   */\n      dup6\n        /* \"#utility.yul\":4397:4451   */\n      tag_41\n      jump\t// in\n    tag_95:\n        /* \"#utility.yul\":4116:4457   */\n      pop\n        /* \"#utility.yul\":4032:4457   */\n      swap4\n      swap3\n      pop\n      pop\n      pop\n      jump\t// out\n        /* \"#utility.yul\":4477:4817   */\n    tag_43:\n        /* \"#utility.yul\":4533:4538   */\n      0x00\n        /* \"#utility.yul\":4582:4585   */\n      dup3\n        /* \"#utility.yul\":4575:4579   */\n      0x1f\n        /* \"#utility.yul\":4567:4573   */\n      dup4\n        /* \"#utility.yul\":4563:4580   */\n      add\n        /* \"#utility.yul\":4559:4586   */\n      slt\n        /* \"#utility.yul\":4549:4671   */\n      tag_97\n      jumpi\n        /* \"#utility.yul\":4590:4669   */\n      tag_98\n      tag_34\n      jump\t// in\n    tag_98:\n        /* \"#utility.yul\":4549:4671   */\n    tag_97:\n        /* \"#utility.yul\":4707:4713   */\n      dup2\n        /* \"#utility.yul\":4694:4714   */\n      calldataload\n        /* \"#utility.yul\":4732:4811   */\n      tag_99\n        /* \"#utility.yul\":4807:4810   */\n      dup5\n        /* \"#utility.yul\":4799:4805   */\n      dup3\n        /* \"#utility.yul\":4792:4796   */\n      0x20\n        /* \"#utility.yul\":4784:4790   */\n      dup7\n        /* \"#utility.yul\":4780:4797   */\n      add\n        /* \"#utility.yul\":4732:4811   */\n      tag_42\n      jump\t// in\n    tag_99:\n        /* \"#utility.yul\":4723:4811   */\n      swap2\n      pop\n        /* \"#utility.yul\":4539:4817   */\n      pop\n        /* \"#utility.yul\":4477:4817   */\n      swap3\n      swap2\n      pop\n      pop\n      jump\t// out\n        /* \"#utility.yul\":4823:4945   */\n    tag_44:\n        /* \"#utility.yul\":4896:4920   */\n      tag_101\n        /* \"#utility.yul\":4914:4919   */\n      dup2\n        /* \"#utility.yul\":4896:4920   */\n      tag_26\n      jump\t// in\n    tag_101:\n        /* \"#utility.yul\":4889:4894   */\n      dup2\n        /* \"#utility.yul\":4886:4921   */\n      eq\n        /* \"#utility.yul\":4876:4939   */\n      tag_102\n      jumpi\n        /* \"#utility.yul\":4935:4936   */\n      0x00\n        /* \"#utility.yul\":4932:4933   */\n      dup1\n        /* \"#utility.yul\":4925:4937   */\n      revert\n        /* \"#utility.yul\":4876:4939   */\n    tag_102:\n        /* \"#utility.yul\":4823:4945   */\n      pop\n      jump\t// out\n        /* \"#utility.yul\":4951:5090   */\n    tag_45:\n        /* \"#utility.yul\":4997:5002   */\n      0x00\n        /* \"#utility.yul\":5035:5041   */\n      dup2\n        /* \"#utility.yul\":5022:5042   */\n      calldataload\n        /* \"#utility.yul\":5013:5042   */\n      swap1\n      pop\n        /* \"#utility.yul\":5051:5084   */\n      tag_104\n        /* \"#utility.yul\":5078:5083   */\n      dup2\n        /* \"#utility.yul\":5051:5084   */\n      tag_44\n      jump\t// in\n    tag_104:\n        /* \"#utility.yul\":4951:5090   */\n      swap3\n      swap2\n      pop\n      pop\n      jump\t// out\n        /* \"#utility.yul\":5096:5750   */\n    tag_14:\n        /* \"#utility.yul\":5174:5180   */\n      0x00\n        /* \"#utility.yul\":5182:5188   */\n      dup1\n        /* \"#utility.yul\":5231:5233   */\n      0x40\n        /* \"#utility.yul\":5219:5228   */\n      dup4\n        /* \"#utility.yul\":5210:5217   */\n      dup6\n        /* \"#utility.yul\":5206:5229   */\n      sub\n        /* \"#utility.yul\":5202:5234   */\n      slt\n        /* \"#utility.yul\":5199:5318   */\n      iszero\n      tag_106\n      jumpi\n        /* \"#utility.yul\":5237:5316   */\n      tag_107\n      tag_32\n      jump\t// in\n    tag_107:\n        /* \"#utility.yul\":5199:5318   */\n    tag_106:\n        /* \"#utility.yul\":5385:5386   */\n      0x00\n        /* \"#utility.yul\":5374:5383   */\n      dup4\n        /* \"#utility.yul\":5370:5387   */\n      add\n        /* \"#utility.yul\":5357:5388   */\n      calldataload\n        /* \"#utility.yul\":5415:5433   */\n      0xffffffffffffffff\n        /* \"#utility.yul\":5407:5413   */\n      dup2\n        /* \"#utility.yul\":5404:5434   */\n      gt\n        /* \"#utility.yul\":5401:5518   */\n      iszero\n      tag_108\n      jumpi\n        /* \"#utility.yul\":5437:5516   */\n      tag_109\n      tag_33\n      jump\t// in\n    tag_109:\n        /* \"#utility.yul\":5401:5518   */\n    tag_108:\n        /* \"#utility.yul\":5542:5605   */\n      tag_110\n        /* \"#utility.yul\":5597:5604   */\n      dup6\n        /* \"#utility.yul\":5588:5594   */\n      dup3\n        /* \"#utility.yul\":5577:5586   */\n      dup7\n        /* \"#utility.yul\":5573:5595   */\n      add\n        /* \"#utility.yul\":5542:5605   */\n      tag_43\n      jump\t// in\n    tag_110:\n        /* \"#utility.yul\":5532:5605   */\n      swap3\n      pop\n        /* \"#utility.yul\":5328:5615   */\n      pop\n        /* \"#utility.yul\":5654:5656   */\n      0x20\n        /* \"#utility.yul\":5680:5733   */\n      tag_111\n        /* \"#utility.yul\":5725:5732   */\n      dup6\n        /* \"#utility.yul\":5716:5722   */\n      dup3\n        /* \"#utility.yul\":5705:5714   */\n      dup7\n        /* \"#utility.yul\":5701:5723   */\n      add\n        /* \"#utility.yul\":5680:5733   */\n      tag_45\n      jump\t// in\n    tag_111:\n        /* \"#utility.yul\":5670:5733   */\n      swap2\n      pop\n        /* \"#utility.yul\":5625:5743   */\n      pop\n        /* \"#utility.yul\":5096:5750   */\n      swap3\n      pop\n      swap3\n      swap1\n      pop\n      jump\t// out\n        /* \"#utility.yul\":5756:5978   */\n    tag_17:\n        /* \"#utility.yul\":5849:5853   */\n      0x00\n        /* \"#utility.yul\":5887:5889   */\n      0x20\n        /* \"#utility.yul\":5876:5885   */\n      dup3\n        /* \"#utility.yul\":5872:5890   */\n      add\n        /* \"#utility.yul\":5864:5890   */\n      swap1\n      pop\n        /* \"#utility.yul\":5900:5971   */\n      tag_113\n        /* \"#utility.yul\":5968:5969   */\n      0x00\n        /* \"#utility.yul\":5957:5966   */\n      dup4\n        /* \"#utility.yul\":5953:5970   */\n      add\n        /* \"#utility.yul\":5944:5950   */\n      dup5\n        /* \"#utility.yul\":5900:5971   */\n      tag_27\n      jump\t// in\n    tag_113:\n        /* \"#utility.yul\":5756:5978   */\n      swap3\n      swap2\n      pop\n      pop\n      jump\t// out\n        /* \"#utility.yul\":5984:6083   */\n    tag_46:\n        /* \"#utility.yul\":6036:6042   */\n      0x00\n        /* \"#utility.yul\":6070:6075   */\n      dup2\n        /* \"#utility.yul\":6064:6076   */\n      mload\n        /* \"#utility.yul\":6054:6076   */\n      swap1\n      pop\n        /* \"#utility.yul\":5984:6083   */\n      swap2\n      swap1\n      pop\n      jump\t// out\n        /* \"#utility.yul\":6089:6335   */\n    tag_47:\n        /* \"#utility.yul\":6170:6171   */\n      0x00\n        /* \"#utility.yul\":6180:6293   */\n    tag_116:\n        /* \"#utility.yul\":6194:6200   */\n      dup4\n        /* \"#utility.yul\":6191:6192   */\n      dup2\n        /* \"#utility.yul\":6188:6201   */\n      lt\n        /* \"#utility.yul\":6180:6293   */\n      iszero\n      tag_118\n      jumpi\n        /* \"#utility.yul\":6279:6280   */\n      dup1\n        /* \"#utility.yul\":6274:6277   */\n      dup3\n        /* \"#utility.yul\":6270:6281   */\n      add\n        /* \"#utility.yul\":6264:6282   */\n      mload\n        /* \"#utility.yul\":6260:6261   */\n      dup2\n        /* \"#utility.yul\":6255:6258   */\n      dup5\n        /* \"#utility.yul\":6251:6262   */\n      add\n        /* \"#utility.yul\":6244:6283   */\n      mstore\n        /* \"#utility.yul\":6216:6218   */\n      0x20\n        /* \"#utility.yul\":6213:6214   */\n      dup2\n        /* \"#utility.yul\":6209:6219   */\n      add\n        /* \"#utility.yul\":6204:6219   */\n      swap1\n      pop\n        /* \"#utility.yul\":6180:6293   */\n      jump(tag_116)\n    tag_118:\n        /* \"#utility.yul\":6327:6328   */\n      0x00\n        /* \"#utility.yul\":6318:6324   */\n      dup5\n        /* \"#utility.yul\":6313:6316   */\n      dup5\n        /* \"#utility.yul\":6309:6325   */\n      add\n        /* \"#utility.yul\":6302:6329   */\n      mstore\n        /* \"#utility.yul\":6151:6335   */\n      pop\n        /* \"#utility.yul\":6089:6335   */\n      pop\n      pop\n      pop\n      jump\t// out\n        /* \"#utility.yul\":6341:6718   */\n    tag_48:\n        /* \"#utility.yul\":6429:6432   */\n      0x00\n        /* \"#utility.yul\":6457:6496   */\n      tag_120\n        /* \"#utility.yul\":6490:6495   */\n      dup3\n        /* \"#utility.yul\":6457:6496   */\n      tag_46\n      jump\t// in\n    tag_120:\n        /* \"#utility.yul\":6512:6583   */\n      tag_121\n        /* \"#utility.yul\":6576:6582   */\n      dup2\n        /* \"#utility.yul\":6571:6574   */\n      dup6\n        /* \"#utility.yul\":6512:6583   */\n      tag_28\n      jump\t// in\n    tag_121:\n        /* \"#utility.yul\":6505:6583   */\n      swap4\n      pop\n        /* \"#utility.yul\":6592:6657   */\n      tag_122\n        /* \"#utility.yul\":6650:6656   */\n      dup2\n        /* \"#utility.yul\":6645:6648   */\n      dup6\n        /* \"#utility.yul\":6638:6642   */\n      0x20\n        /* \"#utility.yul\":6631:6636   */\n      dup7\n        /* \"#utility.yul\":6627:6643   */\n      add\n        /* \"#utility.yul\":6592:6657   */\n      tag_47\n      jump\t// in\n    tag_122:\n        /* \"#utility.yul\":6682:6711   */\n      tag_123\n        /* \"#utility.yul\":6704:6710   */\n      dup2\n        /* \"#utility.yul\":6682:6711   */\n      tag_36\n      jump\t// in\n    tag_123:\n        /* \"#utility.yul\":6677:6680   */\n      dup5\n        /* \"#utility.yul\":6673:6712   */\n      add\n        /* \"#utility.yul\":6666:6712   */\n      swap2\n      pop\n        /* \"#utility.yul\":6433:6718   */\n      pop\n        /* \"#utility.yul\":6341:6718   */\n      swap3\n      swap2\n      pop\n      pop\n      jump\t// out\n        /* \"#utility.yul\":6724:7257   */\n    tag_20:\n        /* \"#utility.yul\":6893:6897   */\n      0x00\n        /* \"#utility.yul\":6931:6933   */\n      0x60\n        /* \"#utility.yul\":6920:6929   */\n      dup3\n        /* \"#utility.yul\":6916:6934   */\n      add\n        /* \"#utility.yul\":6908:6934   */\n      swap1\n      pop\n        /* \"#utility.yul\":6944:7015   */\n      tag_125\n        /* \"#utility.yul\":7012:7013   */\n      0x00\n        /* \"#utility.yul\":7001:7010   */\n      dup4\n        /* \"#utility.yul\":6997:7014   */\n      add\n        /* \"#utility.yul\":6988:6994   */\n      dup7\n        /* \"#utility.yul\":6944:7015   */\n      tag_25\n      jump\t// in\n    tag_125:\n        /* \"#utility.yul\":7025:7097   */\n      tag_126\n        /* \"#utility.yul\":7093:7095   */\n      0x20\n        /* \"#utility.yul\":7082:7091   */\n      dup4\n        /* \"#utility.yul\":7078:7096   */\n      add\n        /* \"#utility.yul\":7069:7075   */\n      dup6\n        /* \"#utility.yul\":7025:7097   */\n      tag_27\n      jump\t// in\n    tag_126:\n        /* \"#utility.yul\":7144:7153   */\n      dup2\n        /* \"#utility.yul\":7138:7142   */\n      dup2\n        /* \"#utility.yul\":7134:7154   */\n      sub\n        /* \"#utility.yul\":7129:7131   */\n      0x40\n        /* \"#utility.yul\":7118:7127   */\n      dup4\n        /* \"#utility.yul\":7114:7132   */\n      add\n        /* \"#utility.yul\":7107:7155   */\n      mstore\n        /* \"#utility.yul\":7172:7250   */\n      tag_127\n        /* \"#utility.yul\":7245:7249   */\n      dup2\n        /* \"#utility.yul\":7236:7242   */\n      dup5\n        /* \"#utility.yul\":7172:7250   */\n      tag_48\n      jump\t// in\n    tag_127:\n        /* \"#utility.yul\":7164:7250   */\n      swap1\n      pop\n        /* \"#utility.yul\":6724:7257   */\n      swap5\n      swap4\n      pop\n      pop\n      pop\n      pop\n      jump\t// out\n        /* \"#utility.yul\":7263:7443   */\n    tag_49:\n        /* \"#utility.yul\":7311:7388   */\n      0x4e487b7100000000000000000000000000000000000000000000000000000000\n        /* \"#utility.yul\":7308:7309   */\n      0x00\n        /* \"#utility.yul\":7301:7389   */\n      mstore\n        /* \"#utility.yul\":7408:7412   */\n      0x11\n        /* \"#utility.yul\":7405:7406   */\n      0x04\n        /* \"#utility.yul\":7398:7413   */\n      mstore\n        /* \"#utility.yul\":7432:7436   */\n      0x24\n        /* \"#utility.yul\":7429:7430   */\n      0x00\n        /* \"#utility.yul\":7422:7437   */\n      revert\n        /* \"#utility.yul\":7449:7640   */\n    tag_22:\n        /* \"#utility.yul\":7489:7492   */\n      0x00\n        /* \"#utility.yul\":7508:7528   */\n      tag_130\n        /* \"#utility.yul\":7526:7527   */\n      dup3\n        /* \"#utility.yul\":7508:7528   */\n      tag_26\n      jump\t// in\n    tag_130:\n        /* \"#utility.yul\":7503:7528   */\n      swap2\n      pop\n        /* \"#utility.yul\":7542:7562   */\n      tag_131\n        /* \"#utility.yul\":7560:7561   */\n      dup4\n        /* \"#utility.yul\":7542:7562   */\n      tag_26\n      jump\t// in\n    tag_131:\n        /* \"#utility.yul\":7537:7562   */\n      swap3\n      pop\n        /* \"#utility.yul\":7585:7586   */\n      dup3\n        /* \"#utility.yul\":7582:7583   */\n      dup3\n        /* \"#utility.yul\":7578:7587   */\n      add\n        /* \"#utility.yul\":7571:7587   */\n      swap1\n      pop\n        /* \"#utility.yul\":7606:7609   */\n      dup1\n        /* \"#utility.yul\":7603:7604   */\n      dup3\n        /* \"#utility.yul\":7600:7610   */\n      gt\n        /* \"#utility.yul\":7597:7633   */\n      iszero\n      tag_132\n      jumpi\n        /* \"#utility.yul\":7613:7631   */\n      tag_133\n      tag_49\n      jump\t// in\n    tag_133:\n        /* \"#utility.yul\":7597:7633   */\n    tag_132:\n        /* \"#utility.yul\":7449:7640   */\n      swap3\n      swap2\n      pop\n      pop\n      jump\t// out\n\n    auxdata: 0xa264697066735822122071fd2323ff2026e8a7032d6cf2deef1297cfd54c2d6fba78628c34ba3d29c0e764736f6c63430008110033\n}\n",
				"bytecode": {
					"linkReferences": {},
					"object": "608060405234801561001057600080fd5b5061057d806100206000396000f3fe6080604052600436106100225760003560e01c806324ccab8f1461009d57610062565b36610062577f24feae88ede5c2d07f0ca617a259e25baf86481eafba06bc78af89772bc0b6b73334604051610058929190610179565b60405180910390a1005b7f59e04c3f0d44b7caf6e8ef854b61d9a51cf1960d7a88ff6356cc5e946b4b583233346040516100939291906101ff565b60405180910390a1005b6100b760048036038101906100b291906103c1565b6100cd565b6040516100c4919061041d565b60405180910390f35b60007f59e04c3f0d44b7caf6e8ef854b61d9a51cf1960d7a88ff6356cc5e946b4b5832333485604051610102939291906104a6565b60405180910390a16001826101179190610513565b905092915050565b600073ffffffffffffffffffffffffffffffffffffffff82169050919050565b600061014a8261011f565b9050919050565b61015a8161013f565b82525050565b6000819050919050565b61017381610160565b82525050565b600060408201905061018e6000830185610151565b61019b602083018461016a565b9392505050565b600082825260208201905092915050565b7f46616c6c6261636b207761732063616c6c656400000000000000000000000000600082015250565b60006101e96013836101a2565b91506101f4826101b3565b602082019050919050565b60006060820190506102146000830185610151565b610221602083018461016a565b8181036040830152610232816101dc565b90509392505050565b6000604051905090565b600080fd5b600080fd5b600080fd5b600080fd5b6000601f19601f8301169050919050565b7f4e487b7100000000000000000000000000000000000000000000000000000000600052604160045260246000fd5b6102a282610259565b810181811067ffffffffffffffff821117156102c1576102c061026a565b5b80604052505050565b60006102d461023b565b90506102e08282610299565b919050565b600067ffffffffffffffff821115610300576102ff61026a565b5b61030982610259565b9050602081019050919050565b82818337600083830152505050565b6000610338610333846102e5565b6102ca565b90508281526020810184848401111561035457610353610254565b5b61035f848285610316565b509392505050565b600082601f83011261037c5761037b61024f565b5b813561038c848260208601610325565b91505092915050565b61039e81610160565b81146103a957600080fd5b50565b6000813590506103bb81610395565b92915050565b600080604083850312156103d8576103d7610245565b5b600083013567ffffffffffffffff8111156103f6576103f561024a565b5b61040285828601610367565b9250506020610413858286016103ac565b9150509250929050565b6000602082019050610432600083018461016a565b92915050565b600081519050919050565b60005b83811015610461578082015181840152602081019050610446565b60008484015250505050565b600061047882610438565b61048281856101a2565b9350610492818560208601610443565b61049b81610259565b840191505092915050565b60006060820190506104bb6000830186610151565b6104c8602083018561016a565b81810360408301526104da818461046d565b9050949350505050565b7f4e487b7100000000000000000000000000000000000000000000000000000000600052601160045260246000fd5b600061051e82610160565b915061052983610160565b9250828201905080821115610541576105406104e4565b5b9291505056fea264697066735822122071fd2323ff2026e8a7032d6cf2deef1297cfd54c2d6fba78628c34ba3d29c0e764736f6c63430008110033",
					"opcodes": "PUSH1 0x80 PUSH1 0x40 MSTORE CALLVALUE DUP1 ISZERO PUSH2 0x10 JUMPI PUSH1 0x0 DUP1 REVERT JUMPDEST POP PUSH2 0x57D DUP1 PUSH2 0x20 PUSH1 0x0 CODECOPY PUSH1 0x0 RETURN INVALID PUSH1 0x80 PUSH1 0x40 MSTORE PUSH1 0x4 CALLDATASIZE LT PUSH2 0x22 JUMPI PUSH1 0x0 CALLDATALOAD PUSH1 0xE0 SHR DUP1 PUSH4 0x24CCAB8F EQ PUSH2 0x9D JUMPI PUSH2 0x62 JUMP JUMPDEST CALLDATASIZE PUSH2 0x62 JUMPI PUSH32 0x24FEAE88EDE5C2D07F0CA617A259E25BAF86481EAFBA06BC78AF89772BC0B6B7 CALLER CALLVALUE PUSH1 0x40 MLOAD PUSH2 0x58 SWAP3 SWAP2 SWAP1 PUSH2 0x179 JUMP JUMPDEST PUSH1 0x40 MLOAD DUP1 SWAP2 SUB SWAP1 LOG1 STOP JUMPDEST PUSH32 0x59E04C3F0D44B7CAF6E8EF854B61D9A51CF1960D7A88FF6356CC5E946B4B5832 CALLER CALLVALUE PUSH1 0x40 MLOAD PUSH2 0x93 SWAP3 SWAP2 SWAP1 PUSH2 0x1FF JUMP JUMPDEST PUSH1 0x40 MLOAD DUP1 SWAP2 SUB SWAP1 LOG1 STOP JUMPDEST PUSH2 0xB7 PUSH1 0x4 DUP1 CALLDATASIZE SUB DUP2 ADD SWAP1 PUSH2 0xB2 SWAP2 SWAP1 PUSH2 0x3C1 JUMP JUMPDEST PUSH2 0xCD JUMP JUMPDEST PUSH1 0x40 MLOAD PUSH2 0xC4 SWAP2 SWAP1 PUSH2 0x41D JUMP JUMPDEST PUSH1 0x40 MLOAD DUP1 SWAP2 SUB SWAP1 RETURN JUMPDEST PUSH1 0x0 PUSH32 0x59E04C3F0D44B7CAF6E8EF854B61D9A51CF1960D7A88FF6356CC5E946B4B5832 CALLER CALLVALUE DUP6 PUSH1 0x40 MLOAD PUSH2 0x102 SWAP4 SWAP3 SWAP2 SWAP1 PUSH2 0x4A6 JUMP JUMPDEST PUSH1 0x40 MLOAD DUP1 SWAP2 SUB SWAP1 LOG1 PUSH1 0x1 DUP3 PUSH2 0x117 SWAP2 SWAP1 PUSH2 0x513 JUMP JUMPDEST SWAP1 POP SWAP3 SWAP2 POP POP JUMP JUMPDEST PUSH1 0x0 PUSH20 0xFFFFFFFFFFFFFFFFFFFFFFFFFFFFFFFFFFFFFFFF DUP3 AND SWAP1 POP SWAP2 SWAP1 POP JUMP JUMPDEST PUSH1 0x0 PUSH2 0x14A DUP3 PUSH2 0x11F JUMP JUMPDEST SWAP1 POP SWAP2 SWAP1 POP JUMP JUMPDEST PUSH2 0x15A DUP2 PUSH2 0x13F JUMP JUMPDEST DUP3 MSTORE POP POP JUMP JUMPDEST PUSH1 0x0 DUP2 SWAP1 POP SWAP2 SWAP1 POP JUMP JUMPDEST PUSH2 0x173 DUP2 PUSH2 0x160 JUMP JUMPDEST DUP3 MSTORE POP POP JUMP JUMPDEST PUSH1 0x0 PUSH1 0x40 DUP3 ADD SWAP1 POP PUSH2 0x18E PUSH1 0x0 DUP4 ADD DUP6 PUSH2 0x151 JUMP JUMPDEST PUSH2 0x19B PUSH1 0x20 DUP4 ADD DUP5 PUSH2 0x16A JUMP JUMPDEST SWAP4 SWAP3 POP POP POP JUMP JUMPDEST PUSH1 0x0 DUP3 DUP3 MSTORE PUSH1 0x20 DUP3 ADD SWAP1 POP SWAP3 SWAP2 POP POP JUMP JUMPDEST PUSH32 0x46616C6C6261636B207761732063616C6C656400000000000000000000000000 PUSH1 0x0 DUP3 ADD MSTORE POP JUMP JUMPDEST PUSH1 0x0 PUSH2 0x1E9 PUSH1 0x13 DUP4 PUSH2 0x1A2 JUMP JUMPDEST SWAP2 POP PUSH2 0x1F4 DUP3 PUSH2 0x1B3 JUMP JUMPDEST PUSH1 0x20 DUP3 ADD SWAP1 POP SWAP2 SWAP1 POP JUMP JUMPDEST PUSH1 0x0 PUSH1 0x60 DUP3 ADD SWAP1 POP PUSH2 0x214 PUSH1 0x0 DUP4 ADD DUP6 PUSH2 0x151 JUMP JUMPDEST PUSH2 0x221 PUSH1 0x20 DUP4 ADD DUP5 PUSH2 0x16A JUMP JUMPDEST DUP2 DUP2 SUB PUSH1 0x40 DUP4 ADD MSTORE PUSH2 0x232 DUP2 PUSH2 0x1DC JUMP JUMPDEST SWAP1 POP SWAP4 SWAP3 POP POP POP JUMP JUMPDEST PUSH1 0x0 PUSH1 0x40 MLOAD SWAP1 POP SWAP1 JUMP JUMPDEST PUSH1 0x0 DUP1 REVERT JUMPDEST PUSH1 0x0 DUP1 REVERT JUMPDEST PUSH1 0x0 DUP1 REVERT JUMPDEST PUSH1 0x0 DUP1 REVERT JUMPDEST PUSH1 0x0 PUSH1 0x1F NOT PUSH1 0x1F DUP4 ADD AND SWAP1 POP SWAP2 SWAP1 POP JUMP JUMPDEST PUSH32 0x4E487B7100000000000000000000000000000000000000000000000000000000 PUSH1 0x0 MSTORE PUSH1 0x41 PUSH1 0x4 MSTORE PUSH1 0x24 PUSH1 0x0 REVERT JUMPDEST PUSH2 0x2A2 DUP3 PUSH2 0x259 JUMP JUMPDEST DUP2 ADD DUP2 DUP2 LT PUSH8 0xFFFFFFFFFFFFFFFF DUP3 GT OR ISZERO PUSH2 0x2C1 JUMPI PUSH2 0x2C0 PUSH2 0x26A JUMP JUMPDEST JUMPDEST DUP1 PUSH1 0x40 MSTORE POP POP POP JUMP JUMPDEST PUSH1 0x0 PUSH2 0x2D4 PUSH2 0x23B JUMP JUMPDEST SWAP1 POP PUSH2 0x2E0 DUP3 DUP3 PUSH2 0x299 JUMP JUMPDEST SWAP2 SWAP1 POP JUMP JUMPDEST PUSH1 0x0 PUSH8 0xFFFFFFFFFFFFFFFF DUP3 GT ISZERO PUSH2 0x300 JUMPI PUSH2 0x2FF PUSH2 0x26A JUMP JUMPDEST JUMPDEST PUSH2 0x309 DUP3 PUSH2 0x259 JUMP JUMPDEST SWAP1 POP PUSH1 0x20 DUP2 ADD SWAP1 POP SWAP2 SWAP1 POP JUMP JUMPDEST DUP3 DUP2 DUP4 CALLDATACOPY PUSH1 0x0 DUP4 DUP4 ADD MSTORE POP POP POP JUMP JUMPDEST PUSH1 0x0 PUSH2 0x338 PUSH2 0x333 DUP5 PUSH2 0x2E5 JUMP JUMPDEST PUSH2 0x2CA JUMP JUMPDEST SWAP1 POP DUP3 DUP2 MSTORE PUSH1 0x20 DUP2 ADD DUP5 DUP5 DUP5 ADD GT ISZERO PUSH2 0x354 JUMPI PUSH2 0x353 PUSH2 0x254 JUMP JUMPDEST JUMPDEST PUSH2 0x35F DUP5 DUP3 DUP6 PUSH2 0x316 JUMP JUMPDEST POP SWAP4 SWAP3 POP POP POP JUMP JUMPDEST PUSH1 0x0 DUP3 PUSH1 0x1F DUP4 ADD SLT PUSH2 0x37C JUMPI PUSH2 0x37B PUSH2 0x24F JUMP JUMPDEST JUMPDEST DUP2 CALLDATALOAD PUSH2 0x38C DUP5 DUP3 PUSH1 0x20 DUP7 ADD PUSH2 0x325 JUMP JUMPDEST SWAP2 POP POP SWAP3 SWAP2 POP POP JUMP JUMPDEST PUSH2 0x39E DUP2 PUSH2 0x160 JUMP JUMPDEST DUP2 EQ PUSH2 0x3A9 JUMPI PUSH1 0x0 DUP1 REVERT JUMPDEST POP JUMP JUMPDEST PUSH1 0x0 DUP2 CALLDATALOAD SWAP1 POP PUSH2 0x3BB DUP2 PUSH2 0x395 JUMP JUMPDEST SWAP3 SWAP2 POP POP JUMP JUMPDEST PUSH1 0x0 DUP1 PUSH1 0x40 DUP4 DUP6 SUB SLT ISZERO PUSH2 0x3D8 JUMPI PUSH2 0x3D7 PUSH2 0x245 JUMP JUMPDEST JUMPDEST PUSH1 0x0 DUP4 ADD CALLDATALOAD PUSH8 0xFFFFFFFFFFFFFFFF DUP2 GT ISZERO PUSH2 0x3F6 JUMPI PUSH2 0x3F5 PUSH2 0x24A JUMP JUMPDEST JUMPDEST PUSH2 0x402 DUP6 DUP3 DUP7 ADD PUSH2 0x367 JUMP JUMPDEST SWAP3 POP POP PUSH1 0x20 PUSH2 0x413 DUP6 DUP3 DUP7 ADD PUSH2 0x3AC JUMP JUMPDEST SWAP2 POP POP SWAP3 POP SWAP3 SWAP1 POP JUMP JUMPDEST PUSH1 0x0 PUSH1 0x20 DUP3 ADD SWAP1 POP PUSH2 0x432 PUSH1 0x0 DUP4 ADD DUP5 PUSH2 0x16A JUMP JUMPDEST SWAP3 SWAP2 POP POP JUMP JUMPDEST PUSH1 0x0 DUP2 MLOAD SWAP1 POP SWAP2 SWAP1 POP JUMP JUMPDEST PUSH1 0x0 JUMPDEST DUP4 DUP2 LT ISZERO PUSH2 0x461 JUMPI DUP1 DUP3 ADD MLOAD DUP2 DUP5 ADD MSTORE PUSH1 0x20 DUP2 ADD SWAP1 POP PUSH2 0x446 JUMP JUMPDEST PUSH1 0x0 DUP5 DUP5 ADD MSTORE POP POP POP POP JUMP JUMPDEST PUSH1 0x0 PUSH2 0x478 DUP3 PUSH2 0x438 JUMP JUMPDEST PUSH2 0x482 DUP2 DUP6 PUSH2 0x1A2 JUMP JUMPDEST SWAP4 POP PUSH2 0x492 DUP2 DUP6 PUSH1 0x20 DUP7 ADD PUSH2 0x443 JUMP JUMPDEST PUSH2 0x49B DUP2 PUSH2 0x259 JUMP JUMPDEST DUP5 ADD SWAP2 POP POP SWAP3 SWAP2 POP POP JUMP JUMPDEST PUSH1 0x0 PUSH1 0x60 DUP3 ADD SWAP1 POP PUSH2 0x4BB PUSH1 0x0 DUP4 ADD DUP7 PUSH2 0x151 JUMP JUMPDEST PUSH2 0x4C8 PUSH1 0x20 DUP4 ADD DUP6 PUSH2 0x16A JUMP JUMPDEST DUP2 DUP2 SUB PUSH1 0x40 DUP4 ADD MSTORE PUSH2 0x4DA DUP2 DUP5 PUSH2 0x46D JUMP JUMPDEST SWAP1 POP SWAP5 SWAP4 POP POP POP POP JUMP JUMPDEST PUSH32 0x4E487B7100000000000000000000000000000000000000000000000000000000 PUSH1 0x0 MSTORE PUSH1 0x11 PUSH1 0x4 MSTORE PUSH1 0x24 PUSH1 0x0 REVERT JUMPDEST PUSH1 0x0 PUSH2 0x51E DUP3 PUSH2 0x160 JUMP JUMPDEST SWAP2 POP PUSH2 0x529 DUP4 PUSH2 0x160 JUMP JUMPDEST SWAP3 POP DUP3 DUP3 ADD SWAP1 POP DUP1 DUP3 GT ISZERO PUSH2 0x541 JUMPI PUSH2 0x540 PUSH2 0x4E4 JUMP JUMPDEST JUMPDEST SWAP3 SWAP2 POP POP JUMP INVALID LOG2 PUSH5 0x6970667358 0x22 SLT KECCAK256 PUSH18 0xFD2323FF2026E8A7032D6CF2DEEF1297CFD5 0x4C 0x2D PUSH16 0xBA78628C34BA3D29C0E764736F6C6343 STOP ADDMOD GT STOP CALLER "
				},
				"gasEstimates": {
					"creation": {
						"codeDepositCost": "281000",
						"executionCost": "318",
						"totalCost": "281318"
					},
					"external": {
						"": "2652",
						"foo(string,uint256)": "infinite"
					}
				},
				"methodIdentifiers": {
					"foo(string,uint256)": "24ccab8f"
				}
			},
			"storageLayout": {
				"storage": [],
				"types": null
			},
			"userdoc": {
				"kind": "user",
				"methods": {},
				"version": 1
			}
		}
	}
}