{
	"lesson/ArrayAndStruct.sol": {
		"StructTypes": {
			"abi": [
				{
					"inputs": [],
					"name": "initStudent1",
					"outputs": [],
					"stateMutability": "nonpayable",
					"type": "function"
				},
				{
					"inputs": [],
					"name": "initStudent2",
					"outputs": [],
					"stateMutability": "nonpayable",
					"type": "function"
				}
			],
			"devdoc": {
				"kind": "dev",
				"methods": {},
				"version": 1
			},
			"evm": {
				"assembly": "    /* \"lesson/ArrayAndStruct.sol\":1082:1661  contract StructTypes {... */\n  mstore(0x40, 0x80)\n  callvalue\n  dup1\n  iszero\n  tag_1\n  jumpi\n  0x00\n  dup1\n  revert\ntag_1:\n  pop\n  dataSize(sub_0)\n  dup1\n  dataOffset(sub_0)\n  0x00\n  codecopy\n  0x00\n  return\nstop\n\nsub_0: assembly {\n        /* \"lesson/ArrayAndStruct.sol\":1082:1661  contract StructTypes {... */\n      mstore(0x40, 0x80)\n      callvalue\n      dup1\n      iszero\n      tag_1\n      jumpi\n      0x00\n      dup1\n      revert\n    tag_1:\n      pop\n      jumpi(tag_2, lt(calldatasize, 0x04))\n      shr(0xe0, calldataload(0x00))\n      dup1\n      0x1a8d7dc3\n      eq\n      tag_3\n      jumpi\n      dup1\n      0xa8b63e6f\n      eq\n      tag_4\n      jumpi\n    tag_2:\n      0x00\n      dup1\n      revert\n        /* \"lesson/ArrayAndStruct.sol\":1568:1659  function initStudent2() external{... */\n    tag_3:\n      tag_5\n      tag_6\n      jump\t// in\n    tag_5:\n      stop\n        /* \"lesson/ArrayAndStruct.sol\":1345:1512  function initStudent1() external{... */\n    tag_4:\n      tag_7\n      tag_8\n      jump\t// in\n    tag_7:\n      stop\n        /* \"lesson/ArrayAndStruct.sol\":1568:1659  function initStudent2() external{... */\n    tag_6:\n        /* \"lesson/ArrayAndStruct.sol\":1623:1624  1 */\n      0x01\n        /* \"lesson/ArrayAndStruct.sol\":1610:1617  student */\n      0x00\n        /* \"lesson/ArrayAndStruct.sol\":1610:1620  student.id */\n      dup1\n      add\n        /* \"lesson/ArrayAndStruct.sol\":1610:1624  student.id = 1 */\n      dup2\n      swap1\n      sstore\n      pop\n        /* \"lesson/ArrayAndStruct.sol\":1650:1652  80 */\n      0x50\n        /* \"lesson/ArrayAndStruct.sol\":1634:1641  student */\n      0x00\n        /* \"lesson/ArrayAndStruct.sol\":1634:1647  student.score */\n      0x01\n      add\n        /* \"lesson/ArrayAndStruct.sol\":1634:1652  student.score = 80 */\n      dup2\n      swap1\n      sstore\n      pop\n        /* \"lesson/ArrayAndStruct.sol\":1568:1659  function initStudent2() external{... */\n      jump\t// out\n        /* \"lesson/ArrayAndStruct.sol\":1345:1512  function initStudent1() external{... */\n    tag_8:\n        /* \"lesson/ArrayAndStruct.sol\":1387:1411  Student storage _student */\n      0x00\n        /* \"lesson/ArrayAndStruct.sol\":1473:1475  11 */\n      0x0b\n        /* \"lesson/ArrayAndStruct.sol\":1459:1467  _student */\n      dup2\n        /* \"lesson/ArrayAndStruct.sol\":1459:1470  _student.id */\n      0x00\n      add\n        /* \"lesson/ArrayAndStruct.sol\":1459:1475  _student.id = 11 */\n      dup2\n      swap1\n      sstore\n      pop\n        /* \"lesson/ArrayAndStruct.sol\":1502:1505  100 */\n      0x64\n        /* \"lesson/ArrayAndStruct.sol\":1485:1493  _student */\n      dup2\n        /* \"lesson/ArrayAndStruct.sol\":1485:1499  _student.score */\n      0x01\n      add\n        /* \"lesson/ArrayAndStruct.sol\":1485:1505  _student.score = 100 */\n      dup2\n      swap1\n      sstore\n      pop\n        /* \"lesson/ArrayAndStruct.sol\":1377:1512  {... */\n      pop\n        /* \"lesson/ArrayAndStruct.sol\":1345:1512  function initStudent1() external{... */\n      jump\t// out\n\n    auxdata: 0xa26469706673582212206b71ba8071d28550f7dc8b96a3bdee0c5a742fb3d2fc2575718cb7e08277d6ad64736f6c63430008110033\n}\n",
				"bytecode": {
					"linkReferences": {},
					"object": "6080604052348015600f57600080fd5b5060ad8061001e6000396000f3fe6080604052348015600f57600080fd5b506004361060325760003560e01c80631a8d7dc3146037578063a8b63e6f14603f575b600080fd5b603d6047565b005b6045605e565b005b600160008001819055506050600060010181905550565b6000600b8160000181905550606481600101819055505056fea26469706673582212206b71ba8071d28550f7dc8b96a3bdee0c5a742fb3d2fc2575718cb7e08277d6ad64736f6c63430008110033",
					"opcodes": "PUSH1 0x80 PUSH1 0x40 MSTORE CALLVALUE DUP1 ISZERO PUSH1 0xF JUMPI PUSH1 0x0 DUP1 REVERT JUMPDEST POP PUSH1 0xAD DUP1 PUSH2 0x1E PUSH1 0x0 CODECOPY PUSH1 0x0 RETURN INVALID PUSH1 0x80 PUSH1 0x40 MSTORE CALLVALUE DUP1 ISZERO PUSH1 0xF JUMPI PUSH1 0x0 DUP1 REVERT JUMPDEST POP PUSH1 0x4 CALLDATASIZE LT PUSH1 0x32 JUMPI PUSH1 0x0 CALLDATALOAD PUSH1 0xE0 SHR DUP1 PUSH4 0x1A8D7DC3 EQ PUSH1 0x37 JUMPI DUP1 PUSH4 0xA8B63E6F EQ PUSH1 0x3F JUMPI JUMPDEST PUSH1 0x0 DUP1 REVERT JUMPDEST PUSH1 0x3D PUSH1 0x47 JUMP JUMPDEST STOP JUMPDEST PUSH1 0x45 PUSH1 0x5E JUMP JUMPDEST STOP JUMPDEST PUSH1 0x1 PUSH1 0x0 DUP1 ADD DUP2 SWAP1 SSTORE POP PUSH1 0x50 PUSH1 0x0 PUSH1 0x1 ADD DUP2 SWAP1 SSTORE POP JUMP JUMPDEST PUSH1 0x0 PUSH1 0xB DUP2 PUSH1 0x0 ADD DUP2 SWAP1 SSTORE POP PUSH1 0x64 DUP2 PUSH1 0x1 ADD DUP2 SWAP1 SSTORE POP POP JUMP INVALID LOG2 PUSH5 0x6970667358 0x22 SLT KECCAK256 PUSH12 0x71BA8071D28550F7DC8B96A3 0xBD 0xEE 0xC GAS PUSH21 0x2FB3D2FC2575718CB7E08277D6AD64736F6C634300 ADDMOD GT STOP CALLER "
				},
				"gasEstimates": {
					"creation": {
						"codeDepositCost": "34600",
						"executionCost": "87",
						"totalCost": "34687"
					},
					"external": {
						"initStudent1()": "44389",
						"initStudent2()": "44362"
					}
				},
				"methodIdentifiers": {
					"initStudent1()": "a8b63e6f",
					"initStudent2()": "1a8d7dc3"
				}
			},
			"storageLayout": {
				"storage": [
					{
						"astId": 166,
						"contract": "lesson/ArrayAndStruct.sol:StructTypes",
						"label": "student",
						"offset": 0,
						"slot": "0",
						"type": "t_struct(Student)163_storage"
					}
				],
				"types": {
					"t_struct(Student)163_storage": {
						"encoding": "inplace",
						"label": "struct StructTypes.Student",
						"members": [
							{
								"astId": 160,
								"contract": "lesson/ArrayAndStruct.sol:StructTypes",
								"label": "id",
								"offset": 0,
								"slot": "0",
								"type": "t_uint256"
							},
							{
								"astId": 162,
								"contract": "lesson/ArrayAndStruct.sol:StructTypes",
								"label": "score",
								"offset": 0,
								"slot": "1",
								"type": "t_uint256"
							}
						],
						"numberOfBytes": "64"
					},
					"t_uint256": {
						"encoding": "inplace",
						"label": "uint256",
						"numberOfBytes": "32"
					}
				}
			},
			"userdoc": {
				"kind": "user",
				"methods": {},
				"version": 1
			}
		}
	}
}