{
	"lesson/Selfdesttuct.sol": {
		"Helper": {
			"abi": [
				{
					"inputs": [
						{
							"internalType": "contract Kill",
							"name": "_kill",
							"type": "address"
						}
					],
					"name": "kill",
					"outputs": [],
					"stateMutability": "nonpayable",
					"type": "function"
				}
			],
			"devdoc": {
				"kind": "dev",
				"methods": {},
				"version": 1
			},
			"evm": {
				"assembly": "    /* \"lesson/Selfdesttuct.sol\":306:500  contract Helper{... */\n  mstore(0x40, 0x80)\n  callvalue\n  dup1\n  iszero\n  tag_1\n  jumpi\n  0x00\n  dup1\n  revert\ntag_1:\n  pop\n  dataSize(sub_0)\n  dup1\n  dataOffset(sub_0)\n  0x00\n  codecopy\n  0x00\n  return\nstop\n\nsub_0: assembly {\n        /* \"lesson/Selfdesttuct.sol\":306:500  contract Helper{... */\n      mstore(0x40, 0x80)\n      callvalue\n      dup1\n      iszero\n      tag_1\n      jumpi\n      0x00\n      dup1\n      revert\n    tag_1:\n      pop\n      jumpi(tag_2, lt(calldatasize, 0x04))\n      shr(0xe0, calldataload(0x00))\n      dup1\n      0xcbf0b0c0\n      eq\n      tag_3\n      jumpi\n    tag_2:\n      0x00\n      dup1\n      revert\n        /* \"lesson/Selfdesttuct.sol\":436:498  function kill(Kill _kill)external{... */\n    tag_3:\n      tag_4\n      0x04\n      dup1\n      calldatasize\n      sub\n      dup2\n      add\n      swap1\n      tag_5\n      swap2\n      swap1\n      tag_6\n      jump\t// in\n    tag_5:\n      tag_7\n      jump\t// in\n    tag_4:\n      stop\n    tag_7:\n        /* \"lesson/Selfdesttuct.sol\":479:484  _kill */\n      dup1\n        /* \"lesson/Selfdesttuct.sol\":479:489  _kill.kill */\n      0xffffffffffffffffffffffffffffffffffffffff\n      and\n      0x41c0e1b5\n        /* \"lesson/Selfdesttuct.sol\":479:491  _kill.kill() */\n      mload(0x40)\n      dup2\n      0xffffffff\n      and\n      0xe0\n      shl\n      dup2\n      mstore\n      0x04\n      add\n      0x00\n      mload(0x40)\n      dup1\n      dup4\n      sub\n      dup2\n      0x00\n      dup8\n      dup1\n      extcodesize\n      iszero\n      dup1\n      iszero\n      tag_9\n      jumpi\n      0x00\n      dup1\n      revert\n    tag_9:\n      pop\n      gas\n      call\n      iszero\n      dup1\n      iszero\n      tag_11\n      jumpi\n      returndatasize\n      0x00\n      dup1\n      returndatacopy\n      revert(0x00, returndatasize)\n    tag_11:\n      pop\n      pop\n      pop\n      pop\n        /* \"lesson/Selfdesttuct.sol\":436:498  function kill(Kill _kill)external{... */\n      pop\n      jump\t// out\n        /* \"#utility.yul\":88:205   */\n    tag_13:\n        /* \"#utility.yul\":197:198   */\n      0x00\n        /* \"#utility.yul\":194:195   */\n      dup1\n        /* \"#utility.yul\":187:199   */\n      revert\n        /* \"#utility.yul\":334:460   */\n    tag_15:\n        /* \"#utility.yul\":371:378   */\n      0x00\n        /* \"#utility.yul\":411:453   */\n      0xffffffffffffffffffffffffffffffffffffffff\n        /* \"#utility.yul\":404:409   */\n      dup3\n        /* \"#utility.yul\":400:454   */\n      and\n        /* \"#utility.yul\":389:454   */\n      swap1\n      pop\n        /* \"#utility.yul\":334:460   */\n      swap2\n      swap1\n      pop\n      jump\t// out\n        /* \"#utility.yul\":466:562   */\n    tag_16:\n        /* \"#utility.yul\":503:510   */\n      0x00\n        /* \"#utility.yul\":532:556   */\n      tag_26\n        /* \"#utility.yul\":550:555   */\n      dup3\n        /* \"#utility.yul\":532:556   */\n      tag_15\n      jump\t// in\n    tag_26:\n        /* \"#utility.yul\":521:556   */\n      swap1\n      pop\n        /* \"#utility.yul\":466:562   */\n      swap2\n      swap1\n      pop\n      jump\t// out\n        /* \"#utility.yul\":568:675   */\n    tag_17:\n        /* \"#utility.yul\":616:623   */\n      0x00\n        /* \"#utility.yul\":645:669   */\n      tag_28\n        /* \"#utility.yul\":663:668   */\n      dup3\n        /* \"#utility.yul\":645:669   */\n      tag_16\n      jump\t// in\n    tag_28:\n        /* \"#utility.yul\":634:669   */\n      swap1\n      pop\n        /* \"#utility.yul\":568:675   */\n      swap2\n      swap1\n      pop\n      jump\t// out\n        /* \"#utility.yul\":681:825   */\n    tag_18:\n        /* \"#utility.yul\":765:800   */\n      tag_30\n        /* \"#utility.yul\":794:799   */\n      dup2\n        /* \"#utility.yul\":765:800   */\n      tag_17\n      jump\t// in\n    tag_30:\n        /* \"#utility.yul\":758:763   */\n      dup2\n        /* \"#utility.yul\":755:801   */\n      eq\n        /* \"#utility.yul\":745:819   */\n      tag_31\n      jumpi\n        /* \"#utility.yul\":815:816   */\n      0x00\n        /* \"#utility.yul\":812:813   */\n      dup1\n        /* \"#utility.yul\":805:817   */\n      revert\n        /* \"#utility.yul\":745:819   */\n    tag_31:\n        /* \"#utility.yul\":681:825   */\n      pop\n      jump\t// out\n        /* \"#utility.yul\":831:992   */\n    tag_19:\n        /* \"#utility.yul\":888:893   */\n      0x00\n        /* \"#utility.yul\":926:932   */\n      dup2\n        /* \"#utility.yul\":913:933   */\n      calldataload\n        /* \"#utility.yul\":904:933   */\n      swap1\n      pop\n        /* \"#utility.yul\":942:986   */\n      tag_33\n        /* \"#utility.yul\":980:985   */\n      dup2\n        /* \"#utility.yul\":942:986   */\n      tag_18\n      jump\t// in\n    tag_33:\n        /* \"#utility.yul\":831:992   */\n      swap3\n      swap2\n      pop\n      pop\n      jump\t// out\n        /* \"#utility.yul\":998:1349   */\n    tag_6:\n        /* \"#utility.yul\":1068:1074   */\n      0x00\n        /* \"#utility.yul\":1117:1119   */\n      0x20\n        /* \"#utility.yul\":1105:1114   */\n      dup3\n        /* \"#utility.yul\":1096:1103   */\n      dup5\n        /* \"#utility.yul\":1092:1115   */\n      sub\n        /* \"#utility.yul\":1088:1120   */\n      slt\n        /* \"#utility.yul\":1085:1204   */\n      iszero\n      tag_35\n      jumpi\n        /* \"#utility.yul\":1123:1202   */\n      tag_36\n      tag_13\n      jump\t// in\n    tag_36:\n        /* \"#utility.yul\":1085:1204   */\n    tag_35:\n        /* \"#utility.yul\":1243:1244   */\n      0x00\n        /* \"#utility.yul\":1268:1332   */\n      tag_37\n        /* \"#utility.yul\":1324:1331   */\n      dup5\n        /* \"#utility.yul\":1315:1321   */\n      dup3\n        /* \"#utility.yul\":1304:1313   */\n      dup6\n        /* \"#utility.yul\":1300:1322   */\n      add\n        /* \"#utility.yul\":1268:1332   */\n      tag_19\n      jump\t// in\n    tag_37:\n        /* \"#utility.yul\":1258:1332   */\n      swap2\n      pop\n        /* \"#utility.yul\":1214:1342   */\n      pop\n        /* \"#utility.yul\":998:1349   */\n      swap3\n      swap2\n      pop\n      pop\n      jump\t// out\n\n    auxdata: 0xa26469706673582212204d0b04e88140a72ca746e6a1e8674b9036ce5f5653b1309b83387e56c1344b5d64736f6c63430008110033\n}\n",
				"bytecode": {
					"linkReferences": {},
					"object": "608060405234801561001057600080fd5b50610187806100206000396000f3fe608060405234801561001057600080fd5b506004361061002b5760003560e01c8063cbf0b0c014610030575b600080fd5b61004a60048036038101906100459190610124565b61004c565b005b8073ffffffffffffffffffffffffffffffffffffffff166341c0e1b56040518163ffffffff1660e01b8152600401600060405180830381600087803b15801561009457600080fd5b505af11580156100a8573d6000803e3d6000fd5b5050505050565b600080fd5b600073ffffffffffffffffffffffffffffffffffffffff82169050919050565b60006100df826100b4565b9050919050565b60006100f1826100d4565b9050919050565b610101816100e6565b811461010c57600080fd5b50565b60008135905061011e816100f8565b92915050565b60006020828403121561013a576101396100af565b5b60006101488482850161010f565b9150509291505056fea26469706673582212204d0b04e88140a72ca746e6a1e8674b9036ce5f5653b1309b83387e56c1344b5d64736f6c63430008110033",
					"opcodes": "PUSH1 0x80 PUSH1 0x40 MSTORE CALLVALUE DUP1 ISZERO PUSH2 0x10 JUMPI PUSH1 0x0 DUP1 REVERT JUMPDEST POP PUSH2 0x187 DUP1 PUSH2 0x20 PUSH1 0x0 CODECOPY PUSH1 0x0 RETURN INVALID PUSH1 0x80 PUSH1 0x40 MSTORE CALLVALUE DUP1 ISZERO PUSH2 0x10 JUMPI PUSH1 0x0 DUP1 REVERT JUMPDEST POP PUSH1 0x4 CALLDATASIZE LT PUSH2 0x2B JUMPI PUSH1 0x0 CALLDATALOAD PUSH1 0xE0 SHR DUP1 PUSH4 0xCBF0B0C0 EQ PUSH2 0x30 JUMPI JUMPDEST PUSH1 0x0 DUP1 REVERT JUMPDEST PUSH2 0x4A PUSH1 0x4 DUP1 CALLDATASIZE SUB DUP2 ADD SWAP1 PUSH2 0x45 SWAP2 SWAP1 PUSH2 0x124 JUMP JUMPDEST PUSH2 0x4C JUMP JUMPDEST STOP JUMPDEST DUP1 PUSH20 0xFFFFFFFFFFFFFFFFFFFFFFFFFFFFFFFFFFFFFFFF AND PUSH4 0x41C0E1B5 PUSH1 0x40 MLOAD DUP2 PUSH4 0xFFFFFFFF AND PUSH1 0xE0 SHL DUP2 MSTORE PUSH1 0x4 ADD PUSH1 0x0 PUSH1 0x40 MLOAD DUP1 DUP4 SUB DUP2 PUSH1 0x0 DUP8 DUP1 EXTCODESIZE ISZERO DUP1 ISZERO PUSH2 0x94 JUMPI PUSH1 0x0 DUP1 REVERT JUMPDEST POP GAS CALL ISZERO DUP1 ISZERO PUSH2 0xA8 JUMPI RETURNDATASIZE PUSH1 0x0 DUP1 RETURNDATACOPY RETURNDATASIZE PUSH1 0x0 REVERT JUMPDEST POP POP POP POP POP JUMP JUMPDEST PUSH1 0x0 DUP1 REVERT JUMPDEST PUSH1 0x0 PUSH20 0xFFFFFFFFFFFFFFFFFFFFFFFFFFFFFFFFFFFFFFFF DUP3 AND SWAP1 POP SWAP2 SWAP1 POP JUMP JUMPDEST PUSH1 0x0 PUSH2 0xDF DUP3 PUSH2 0xB4 JUMP JUMPDEST SWAP1 POP SWAP2 SWAP1 POP JUMP JUMPDEST PUSH1 0x0 PUSH2 0xF1 DUP3 PUSH2 0xD4 JUMP JUMPDEST SWAP1 POP SWAP2 SWAP1 POP JUMP JUMPDEST PUSH2 0x101 DUP2 PUSH2 0xE6 JUMP JUMPDEST DUP2 EQ PUSH2 0x10C JUMPI PUSH1 0x0 DUP1 REVERT JUMPDEST POP JUMP JUMPDEST PUSH1 0x0 DUP2 CALLDATALOAD SWAP1 POP PUSH2 0x11E DUP2 PUSH2 0xF8 JUMP JUMPDEST SWAP3 SWAP2 POP POP JUMP JUMPDEST PUSH1 0x0 PUSH1 0x20 DUP3 DUP5 SUB SLT ISZERO PUSH2 0x13A JUMPI PUSH2 0x139 PUSH2 0xAF JUMP JUMPDEST JUMPDEST PUSH1 0x0 PUSH2 0x148 DUP5 DUP3 DUP6 ADD PUSH2 0x10F JUMP JUMPDEST SWAP2 POP POP SWAP3 SWAP2 POP POP JUMP INVALID LOG2 PUSH5 0x6970667358 0x22 SLT KECCAK256 0x4D SIGNEXTEND DIV 0xE8 DUP2 BLOCKHASH 0xA7 0x2C 0xA7 CHAINID 0xE6 LOG1 0xE8 PUSH8 0x4B9036CE5F5653B1 ADDRESS SWAP12 DUP4 CODESIZE PUSH31 0x56C1344B5D64736F6C63430008110033000000000000000000000000000000 "
				},
				"gasEstimates": {
					"creation": {
						"codeDepositCost": "78200",
						"executionCost": "129",
						"totalCost": "78329"
					},
					"external": {
						"kill(address)": "infinite"
					}
				},
				"methodIdentifiers": {
					"kill(address)": "cbf0b0c0"
				}
			},
			"storageLayout": {
				"storage": [],
				"types": null
			},
			"userdoc": {
				"kind": "user",
				"methods": {},
				"version": 1
			}
		}
	}
}