{
	"data": {
		"bytecode": {
			"linkReferences": {},
			"object": "608060405234801561001057600080fd5b506104ea806100206000396000f3fe60806040526004361061003f5760003560e01c80633004b163146100445780633ca065bb1461006057806366563e691461008957806394a7b4f4146100c6575b600080fd5b61005e60048036038101906100599190610370565b610103565b005b34801561006c57600080fd5b5061008760048036038101906100829190610370565b610173565b005b34801561009557600080fd5b506100b060048036038101906100ab91906103ee565b6101e2565b6040516100bd919061042a565b60405180910390f35b3480156100d257600080fd5b506100ed60048036038101906100e89190610445565b61025a565b6040516100fa919061042a565b60405180910390f35b8173ffffffffffffffffffffffffffffffffffffffff16634018d9aa34836040518363ffffffff1660e01b815260040161013d919061042a565b6000604051808303818588803b15801561015657600080fd5b505af115801561016a573d6000803e3d6000fd5b50505050505050565b8173ffffffffffffffffffffffffffffffffffffffff16634018d9aa826040518263ffffffff1660e01b81526004016101ac919061042a565b600060405180830381600087803b1580156101c657600080fd5b505af11580156101da573d6000803e3d6000fd5b505050505050565b60008173ffffffffffffffffffffffffffffffffffffffff16635197c7aa6040518163ffffffff1660e01b8152600401602060405180830381865afa15801561022f573d6000803e3d6000fd5b505050506040513d601f19601f820116820180604052508101906102539190610487565b9050919050565b6000808290508073ffffffffffffffffffffffffffffffffffffffff16635197c7aa6040518163ffffffff1660e01b8152600401602060405180830381865afa1580156102ab573d6000803e3d6000fd5b505050506040513d601f19601f820116820180604052508101906102cf9190610487565b915050919050565b600080fd5b600073ffffffffffffffffffffffffffffffffffffffff82169050919050565b6000610307826102dc565b9050919050565b610317816102fc565b811461032257600080fd5b50565b6000813590506103348161030e565b92915050565b6000819050919050565b61034d8161033a565b811461035857600080fd5b50565b60008135905061036a81610344565b92915050565b60008060408385031215610387576103866102d7565b5b600061039585828601610325565b92505060206103a68582860161035b565b9150509250929050565b60006103bb826102fc565b9050919050565b6103cb816103b0565b81146103d657600080fd5b50565b6000813590506103e8816103c2565b92915050565b600060208284031215610404576104036102d7565b5b6000610412848285016103d9565b91505092915050565b6104248161033a565b82525050565b600060208201905061043f600083018461041b565b92915050565b60006020828403121561045b5761045a6102d7565b5b600061046984828501610325565b91505092915050565b60008151905061048181610344565b92915050565b60006020828403121561049d5761049c6102d7565b5b60006104ab84828501610472565b9150509291505056fea26469706673582212209471ecaadcfdaabf37faebfe1387291397dabd83fd5780d7f59b600481c4c18c64736f6c63430008110033",
			"opcodes": "PUSH1 0x80 PUSH1 0x40 MSTORE CALLVALUE DUP1 ISZERO PUSH2 0x10 JUMPI PUSH1 0x0 DUP1 REVERT JUMPDEST POP PUSH2 0x4EA DUP1 PUSH2 0x20 PUSH1 0x0 CODECOPY PUSH1 0x0 RETURN INVALID PUSH1 0x80 PUSH1 0x40 MSTORE PUSH1 0x4 CALLDATASIZE LT PUSH2 0x3F JUMPI PUSH1 0x0 CALLDATALOAD PUSH1 0xE0 SHR DUP1 PUSH4 0x3004B163 EQ PUSH2 0x44 JUMPI DUP1 PUSH4 0x3CA065BB EQ PUSH2 0x60 JUMPI DUP1 PUSH4 0x66563E69 EQ PUSH2 0x89 JUMPI DUP1 PUSH4 0x94A7B4F4 EQ PUSH2 0xC6 JUMPI JUMPDEST PUSH1 0x0 DUP1 REVERT JUMPDEST PUSH2 0x5E PUSH1 0x4 DUP1 CALLDATASIZE SUB DUP2 ADD SWAP1 PUSH2 0x59 SWAP2 SWAP1 PUSH2 0x370 JUMP JUMPDEST PUSH2 0x103 JUMP JUMPDEST STOP JUMPDEST CALLVALUE DUP1 ISZERO PUSH2 0x6C JUMPI PUSH1 0x0 DUP1 REVERT JUMPDEST POP PUSH2 0x87 PUSH1 0x4 DUP1 CALLDATASIZE SUB DUP2 ADD SWAP1 PUSH2 0x82 SWAP2 SWAP1 PUSH2 0x370 JUMP JUMPDEST PUSH2 0x173 JUMP JUMPDEST STOP JUMPDEST CALLVALUE DUP1 ISZERO PUSH2 0x95 JUMPI PUSH1 0x0 DUP1 REVERT JUMPDEST POP PUSH2 0xB0 PUSH1 0x4 DUP1 CALLDATASIZE SUB DUP2 ADD SWAP1 PUSH2 0xAB SWAP2 SWAP1 PUSH2 0x3EE JUMP JUMPDEST PUSH2 0x1E2 JUMP JUMPDEST PUSH1 0x40 MLOAD PUSH2 0xBD SWAP2 SWAP1 PUSH2 0x42A JUMP JUMPDEST PUSH1 0x40 MLOAD DUP1 SWAP2 SUB SWAP1 RETURN JUMPDEST CALLVALUE DUP1 ISZERO PUSH2 0xD2 JUMPI PUSH1 0x0 DUP1 REVERT JUMPDEST POP PUSH2 0xED PUSH1 0x4 DUP1 CALLDATASIZE SUB DUP2 ADD SWAP1 PUSH2 0xE8 SWAP2 SWAP1 PUSH2 0x445 JUMP JUMPDEST PUSH2 0x25A JUMP JUMPDEST PUSH1 0x40 MLOAD PUSH2 0xFA SWAP2 SWAP1 PUSH2 0x42A JUMP JUMPDEST PUSH1 0x40 MLOAD DUP1 SWAP2 SUB SWAP1 RETURN JUMPDEST DUP2 PUSH20 0xFFFFFFFFFFFFFFFFFFFFFFFFFFFFFFFFFFFFFFFF AND PUSH4 0x4018D9AA CALLVALUE DUP4 PUSH1 0x40 MLOAD DUP4 PUSH4 0xFFFFFFFF AND PUSH1 0xE0 SHL DUP2 MSTORE PUSH1 0x4 ADD PUSH2 0x13D SWAP2 SWAP1 PUSH2 0x42A JUMP JUMPDEST PUSH1 0x0 PUSH1 0x40 MLOAD DUP1 DUP4 SUB DUP2 DUP6 DUP9 DUP1 EXTCODESIZE ISZERO DUP1 ISZERO PUSH2 0x156 JUMPI PUSH1 0x0 DUP1 REVERT JUMPDEST POP GAS CALL ISZERO DUP1 ISZERO PUSH2 0x16A JUMPI RETURNDATASIZE PUSH1 0x0 DUP1 RETURNDATACOPY RETURNDATASIZE PUSH1 0x0 REVERT JUMPDEST POP POP POP POP POP POP POP JUMP JUMPDEST DUP2 PUSH20 0xFFFFFFFFFFFFFFFFFFFFFFFFFFFFFFFFFFFFFFFF AND PUSH4 0x4018D9AA DUP3 PUSH1 0x40 MLOAD DUP3 PUSH4 0xFFFFFFFF AND PUSH1 0xE0 SHL DUP2 MSTORE PUSH1 0x4 ADD PUSH2 0x1AC SWAP2 SWAP1 PUSH2 0x42A JUMP JUMPDEST PUSH1 0x0 PUSH1 0x40 MLOAD DUP1 DUP4 SUB DUP2 PUSH1 0x0 DUP8 DUP1 EXTCODESIZE ISZERO DUP1 ISZERO PUSH2 0x1C6 JUMPI PUSH1 0x0 DUP1 REVERT JUMPDEST POP GAS CALL ISZERO DUP1 ISZERO PUSH2 0x1DA JUMPI RETURNDATASIZE PUSH1 0x0 DUP1 RETURNDATACOPY RETURNDATASIZE PUSH1 0x0 REVERT JUMPDEST POP POP POP POP POP POP JUMP JUMPDEST PUSH1 0x0 DUP2 PUSH20 0xFFFFFFFFFFFFFFFFFFFFFFFFFFFFFFFFFFFFFFFF AND PUSH4 0x5197C7AA PUSH1 0x40 MLOAD DUP2 PUSH4 0xFFFFFFFF AND PUSH1 0xE0 SHL DUP2 MSTORE PUSH1 0x4 ADD PUSH1 0x20 PUSH1 0x40 MLOAD DUP1 DUP4 SUB DUP2 DUP7 GAS STATICCALL ISZERO DUP1 ISZERO PUSH2 0x22F JUMPI RETURNDATASIZE PUSH1 0x0 DUP1 RETURNDATACOPY RETURNDATASIZE PUSH1 0x0 REVERT JUMPDEST POP POP POP POP PUSH1 0x40 MLOAD RETURNDATASIZE PUSH1 0x1F NOT PUSH1 0x1F DUP3 ADD AND DUP3 ADD DUP1 PUSH1 0x40 MSTORE POP DUP2 ADD SWAP1 PUSH2 0x253 SWAP2 SWAP1 PUSH2 0x487 JUMP JUMPDEST SWAP1 POP SWAP2 SWAP1 POP JUMP JUMPDEST PUSH1 0x0 DUP1 DUP3 SWAP1 POP DUP1 PUSH20 0xFFFFFFFFFFFFFFFFFFFFFFFFFFFFFFFFFFFFFFFF AND PUSH4 0x5197C7AA PUSH1 0x40 MLOAD DUP2 PUSH4 0xFFFFFFFF AND PUSH1 0xE0 SHL DUP2 MSTORE PUSH1 0x4 ADD PUSH1 0x20 PUSH1 0x40 MLOAD DUP1 DUP4 SUB DUP2 DUP7 GAS STATICCALL ISZERO DUP1 ISZERO PUSH2 0x2AB JUMPI RETURNDATASIZE PUSH1 0x0 DUP1 RETURNDATACOPY RETURNDATASIZE PUSH1 0x0 REVERT JUMPDEST POP POP POP POP PUSH1 0x40 MLOAD RETURNDATASIZE PUSH1 0x1F NOT PUSH1 0x1F DUP3 ADD AND DUP3 ADD DUP1 PUSH1 0x40 MSTORE POP DUP2 ADD SWAP1 PUSH2 0x2CF SWAP2 SWAP1 PUSH2 0x487 JUMP JUMPDEST SWAP2 POP POP SWAP2 SWAP1 POP JUMP JUMPDEST PUSH1 0x0 DUP1 REVERT JUMPDEST PUSH1 0x0 PUSH20 0xFFFFFFFFFFFFFFFFFFFFFFFFFFFFFFFFFFFFFFFF DUP3 AND SWAP1 POP SWAP2 SWAP1 POP JUMP JUMPDEST PUSH1 0x0 PUSH2 0x307 DUP3 PUSH2 0x2DC JUMP JUMPDEST SWAP1 POP SWAP2 SWAP1 POP JUMP JUMPDEST PUSH2 0x317 DUP2 PUSH2 0x2FC JUMP JUMPDEST DUP2 EQ PUSH2 0x322 JUMPI PUSH1 0x0 DUP1 REVERT JUMPDEST POP JUMP JUMPDEST PUSH1 0x0 DUP2 CALLDATALOAD SWAP1 POP PUSH2 0x334 DUP2 PUSH2 0x30E JUMP JUMPDEST SWAP3 SWAP2 POP POP JUMP JUMPDEST PUSH1 0x0 DUP2 SWAP1 POP SWAP2 SWAP1 POP JUMP JUMPDEST PUSH2 0x34D DUP2 PUSH2 0x33A JUMP JUMPDEST DUP2 EQ PUSH2 0x358 JUMPI PUSH1 0x0 DUP1 REVERT JUMPDEST POP JUMP JUMPDEST PUSH1 0x0 DUP2 CALLDATALOAD SWAP1 POP PUSH2 0x36A DUP2 PUSH2 0x344 JUMP JUMPDEST SWAP3 SWAP2 POP POP JUMP JUMPDEST PUSH1 0x0 DUP1 PUSH1 0x40 DUP4 DUP6 SUB SLT ISZERO PUSH2 0x387 JUMPI PUSH2 0x386 PUSH2 0x2D7 JUMP JUMPDEST JUMPDEST PUSH1 0x0 PUSH2 0x395 DUP6 DUP3 DUP7 ADD PUSH2 0x325 JUMP JUMPDEST SWAP3 POP POP PUSH1 0x20 PUSH2 0x3A6 DUP6 DUP3 DUP7 ADD PUSH2 0x35B JUMP JUMPDEST SWAP2 POP POP SWAP3 POP SWAP3 SWAP1 POP JUMP JUMPDEST PUSH1 0x0 PUSH2 0x3BB DUP3 PUSH2 0x2FC JUMP JUMPDEST SWAP1 POP SWAP2 SWAP1 POP JUMP JUMPDEST PUSH2 0x3CB DUP2 PUSH2 0x3B0 JUMP JUMPDEST DUP2 EQ PUSH2 0x3D6 JUMPI PUSH1 0x0 DUP1 REVERT JUMPDEST POP JUMP JUMPDEST PUSH1 0x0 DUP2 CALLDATALOAD SWAP1 POP PUSH2 0x3E8 DUP2 PUSH2 0x3C2 JUMP JUMPDEST SWAP3 SWAP2 POP POP JUMP JUMPDEST PUSH1 0x0 PUSH1 0x20 DUP3 DUP5 SUB SLT ISZERO PUSH2 0x404 JUMPI PUSH2 0x403 PUSH2 0x2D7 JUMP JUMPDEST JUMPDEST PUSH1 0x0 PUSH2 0x412 DUP5 DUP3 DUP6 ADD PUSH2 0x3D9 JUMP JUMPDEST SWAP2 POP POP SWAP3 SWAP2 POP POP JUMP JUMPDEST PUSH2 0x424 DUP2 PUSH2 0x33A JUMP JUMPDEST DUP3 MSTORE POP POP JUMP JUMPDEST PUSH1 0x0 PUSH1 0x20 DUP3 ADD SWAP1 POP PUSH2 0x43F PUSH1 0x0 DUP4 ADD DUP5 PUSH2 0x41B JUMP JUMPDEST SWAP3 SWAP2 POP POP JUMP JUMPDEST PUSH1 0x0 PUSH1 0x20 DUP3 DUP5 SUB SLT ISZERO PUSH2 0x45B JUMPI PUSH2 0x45A PUSH2 0x2D7 JUMP JUMPDEST JUMPDEST PUSH1 0x0 PUSH2 0x469 DUP5 DUP3 DUP6 ADD PUSH2 0x325 JUMP JUMPDEST SWAP2 POP POP SWAP3 SWAP2 POP POP JUMP JUMPDEST PUSH1 0x0 DUP2 MLOAD SWAP1 POP PUSH2 0x481 DUP2 PUSH2 0x344 JUMP JUMPDEST SWAP3 SWAP2 POP POP JUMP JUMPDEST PUSH1 0x0 PUSH1 0x20 DUP3 DUP5 SUB SLT ISZERO PUSH2 0x49D JUMPI PUSH2 0x49C PUSH2 0x2D7 JUMP JUMPDEST JUMPDEST PUSH1 0x0 PUSH2 0x4AB DUP5 DUP3 DUP6 ADD PUSH2 0x472 JUMP JUMPDEST SWAP2 POP POP SWAP3 SWAP2 POP POP JUMP INVALID LOG2 PUSH5 0x6970667358 0x22 SLT KECCAK256 SWAP5 PUSH18 0xECAADCFDAABF37FAEBFE1387291397DABD83 REVERT JUMPI DUP1 0xD7 CREATE2 SWAP12 PUSH1 0x4 DUP2 0xC4 0xC1 DUP13 PUSH5 0x736F6C6343 STOP ADDMOD GT STOP CALLER "
		},
		"gasEstimates": {
			"creation": {
				"codeDepositCost": "251600",
				"executionCost": "294",
				"totalCost": "251894"
			},
			"external": {
				"callGetX(address)": "infinite",
				"callGetX2(address)": "infinite",
				"callSetX(address,uint256)": "infinite",
				"setXTransferETH(address,uint256)": "infinite"
			}
		},
		"methodIdentifiers": {
			"callGetX(address)": "66563e69",
			"callGetX2(address)": "94a7b4f4",
			"callSetX(address,uint256)": "3ca065bb",
			"setXTransferETH(address,uint256)": "3004b163"
		}
	},
	"abi": [
		{
			"inputs": [
				{
					"internalType": "contract OtherContract",
					"name": "_Address",
					"type": "address"
				}
			],
			"name": "callGetX",
			"outputs": [
				{
					"internalType": "uint256",
					"name": "x",
					"type": "uint256"
				}
			],
			"stateMutability": "view",
			"type": "function"
		},
		{
			"inputs": [
				{
					"internalType": "address",
					"name": "_Address",
					"type": "address"
				}
			],
			"name": "callGetX2",
			"outputs": [
				{
					"internalType": "uint256",
					"name": "x",
					"type": "uint256"
				}
			],
			"stateMutability": "view",
			"type": "function"
		},
		{
			"inputs": [
				{
					"internalType": "address",
					"name": "_Address",
					"type": "address"
				},
				{
					"internalType": "uint256",
					"name": "x",
					"type": "uint256"
				}
			],
			"name": "callSetX",
			"outputs": [],
			"stateMutability": "nonpayable",
			"type": "function"
		},
		{
			"inputs": [
				{
					"internalType": "address",
					"name": "otherContract",
					"type": "address"
				},
				{
					"internalType": "uint256",
					"name": "x",
					"type": "uint256"
				}
			],
			"name": "setXTransferETH",
			"outputs": [],
			"stateMutability": "payable",
			"type": "function"
		}
	]
}